{
	"contracts/SimpleStorage.sol": {
		"SimpleStorage": {
			"abi": [
				{
					"inputs": [
						{
							"internalType": "string",
							"name": "",
							"type": "string"
						}
					],
					"name": "ntn",
					"outputs": [
						{
							"internalType": "uint32",
							"name": "",
							"type": "uint32"
						}
					],
					"stateMutability": "view",
					"type": "function"
				},
				{
					"inputs": [
						{
							"internalType": "uint256",
							"name": "",
							"type": "uint256"
						}
					],
					"name": "people",
					"outputs": [
						{
							"internalType": "string",
							"name": "name",
							"type": "string"
						},
						{
							"internalType": "uint32",
							"name": "age",
							"type": "uint32"
						}
					],
					"stateMutability": "view",
					"type": "function"
				},
				{
					"inputs": [
						{
							"internalType": "uint32",
							"name": "_age",
							"type": "uint32"
						},
						{
							"internalType": "string",
							"name": "_name",
							"type": "string"
						}
					],
					"name": "store",
					"outputs": [],
					"stateMutability": "nonpayable",
					"type": "function"
				}
			],
			"devdoc": {
				"kind": "dev",
				"methods": {},
				"version": 1
			},
			"evm": {
				"assembly": "    /* \"contracts/SimpleStorage.sol\":276:686  contract SimpleStorage {... */\n  mstore(0x40, 0x80)\n  callvalue\n  dup1\n  iszero\n  tag_1\n  jumpi\n  0x00\n  dup1\n  revert\ntag_1:\n  pop\n  dataSize(sub_0)\n  dup1\n  dataOffset(sub_0)\n  0x00\n  codecopy\n  0x00\n  return\nstop\n\nsub_0: assembly {\n        /* \"contracts/SimpleStorage.sol\":276:686  contract SimpleStorage {... */\n      mstore(0x40, 0x80)\n      callvalue\n      dup1\n      iszero\n      tag_1\n      jumpi\n      0x00\n      dup1\n      revert\n    tag_1:\n      pop\n      jumpi(tag_2, lt(calldatasize, 0x04))\n      shr(0xe0, calldataload(0x00))\n      dup1\n      0x4cdd154f\n      eq\n      tag_3\n      jumpi\n      dup1\n      0x5eb5b344\n      eq\n      tag_4\n      jumpi\n      dup1\n      0x9e7a13ad\n      eq\n      tag_5\n      jumpi\n    tag_2:\n      0x00\n      dup1\n      revert\n        /* \"contracts/SimpleStorage.sol\":406:442  mapping(string => uint32) public ntn */\n    tag_3:\n      tag_6\n      0x04\n      dup1\n      calldatasize\n      sub\n      dup2\n      add\n      swap1\n      tag_7\n      swap2\n      swap1\n      tag_8\n      jump\t// in\n    tag_7:\n      tag_9\n      jump\t// in\n    tag_6:\n      mload(0x40)\n      tag_10\n      swap2\n      swap1\n      tag_11\n      jump\t// in\n    tag_10:\n      mload(0x40)\n      dup1\n      swap2\n      sub\n      swap1\n      return\n        /* \"contracts/SimpleStorage.sol\":451:683  function store(uint32 _age, string memory _name) public {... */\n    tag_4:\n      tag_12\n      0x04\n      dup1\n      calldatasize\n      sub\n      dup2\n      add\n      swap1\n      tag_13\n      swap2\n      swap1\n      tag_14\n      jump\t// in\n    tag_13:\n      tag_15\n      jump\t// in\n    tag_12:\n      stop\n        /* \"contracts/SimpleStorage.sol\":377:399  Person[] public people */\n    tag_5:\n      tag_16\n      0x04\n      dup1\n      calldatasize\n      sub\n      dup2\n      add\n      swap1\n      tag_17\n      swap2\n      swap1\n      tag_18\n      jump\t// in\n    tag_17:\n      tag_19\n      jump\t// in\n    tag_16:\n      mload(0x40)\n      tag_20\n      swap3\n      swap2\n      swap1\n      tag_21\n      jump\t// in\n    tag_20:\n      mload(0x40)\n      dup1\n      swap2\n      sub\n      swap1\n      return\n        /* \"contracts/SimpleStorage.sol\":406:442  mapping(string => uint32) public ntn */\n    tag_9:\n      0x01\n      dup2\n      dup1\n      mload\n      0x20\n      dup2\n      add\n      dup3\n      add\n      dup1\n      mload\n      dup5\n      dup3\n      mstore\n      0x20\n      dup4\n      add\n      0x20\n      dup6\n      add\n      keccak256\n      dup2\n      dup4\n      mstore\n      dup1\n      swap6\n      pop\n      pop\n      pop\n      pop\n      pop\n      pop\n      0x00\n      swap2\n      pop\n      sload\n      swap1\n      0x0100\n      exp\n      swap1\n      div\n      0xffffffff\n      and\n      dup2\n      jump\t// out\n        /* \"contracts/SimpleStorage.sol\":451:683  function store(uint32 _age, string memory _name) public {... */\n    tag_15:\n        /* \"contracts/SimpleStorage.sol\":518:541  Person memory newPerson */\n      0x00\n        /* \"contracts/SimpleStorage.sol\":544:614  Person({... */\n      mload(0x40)\n      dup1\n      0x40\n      add\n      0x40\n      mstore\n      dup1\n        /* \"contracts/SimpleStorage.sol\":597:602  _name */\n      dup4\n        /* \"contracts/SimpleStorage.sol\":544:614  Person({... */\n      dup2\n      mstore\n      0x20\n      add\n        /* \"contracts/SimpleStorage.sol\":571:575  _age */\n      dup5\n        /* \"contracts/SimpleStorage.sol\":544:614  Person({... */\n      0xffffffff\n      and\n      dup2\n      mstore\n      pop\n        /* \"contracts/SimpleStorage.sol\":518:614  Person memory newPerson = Person({... */\n      swap1\n      pop\n        /* \"contracts/SimpleStorage.sol\":638:642  _age */\n      dup3\n        /* \"contracts/SimpleStorage.sol\":625:628  ntn */\n      0x01\n        /* \"contracts/SimpleStorage.sol\":629:634  _name */\n      dup4\n        /* \"contracts/SimpleStorage.sol\":625:635  ntn[_name] */\n      mload(0x40)\n      tag_23\n      swap2\n      swap1\n      tag_24\n      jump\t// in\n    tag_23:\n      swap1\n      dup2\n      mstore\n      0x20\n      add\n      mload(0x40)\n      dup1\n      swap2\n      sub\n      swap1\n      keccak256\n      0x00\n        /* \"contracts/SimpleStorage.sol\":625:642  ntn[_name] = _age */\n      0x0100\n      exp\n      dup2\n      sload\n      dup2\n      0xffffffff\n      mul\n      not\n      and\n      swap1\n      dup4\n      0xffffffff\n      and\n      mul\n      or\n      swap1\n      sstore\n      pop\n        /* \"contracts/SimpleStorage.sol\":653:659  people */\n      0x00\n        /* \"contracts/SimpleStorage.sol\":665:674  newPerson */\n      dup2\n        /* \"contracts/SimpleStorage.sol\":653:675  people.push(newPerson) */\n      swap1\n      dup1\n      0x01\n      dup2\n      sload\n      add\n      dup1\n      dup3\n      sstore\n      dup1\n      swap2\n      pop\n      pop\n      0x01\n      swap1\n      sub\n      swap1\n      0x00\n      mstore\n      keccak256(0x00, 0x20)\n      swap1\n      0x02\n      mul\n      add\n      0x00\n      swap1\n      swap2\n      swap1\n      swap2\n      swap1\n      swap2\n      pop\n      0x00\n      dup3\n      add\n      mload\n      dup2\n      0x00\n      add\n      swap1\n      dup2\n      tag_26\n      swap2\n      swap1\n      tag_27\n      jump\t// in\n    tag_26:\n      pop\n      0x20\n      dup3\n      add\n      mload\n      dup2\n      0x01\n      add\n      exp(0x0100, 0x00)\n      dup2\n      sload\n      dup2\n      0xffffffff\n      mul\n      not\n      and\n      swap1\n      dup4\n      0xffffffff\n      and\n      mul\n      or\n      swap1\n      sstore\n      pop\n      pop\n      pop\n        /* \"contracts/SimpleStorage.sol\":507:683  {... */\n      pop\n        /* \"contracts/SimpleStorage.sol\":451:683  function store(uint32 _age, string memory _name) public {... */\n      pop\n      pop\n      jump\t// out\n        /* \"contracts/SimpleStorage.sol\":377:399  Person[] public people */\n    tag_19:\n      0x00\n      dup2\n      dup2\n      sload\n      dup2\n      lt\n      tag_28\n      jumpi\n      0x00\n      dup1\n      revert\n    tag_28:\n      swap1\n      0x00\n      mstore\n      keccak256(0x00, 0x20)\n      swap1\n      0x02\n      mul\n      add\n      0x00\n      swap2\n      pop\n      swap1\n      pop\n      dup1\n      0x00\n      add\n      dup1\n      sload\n      tag_30\n      swap1\n      tag_31\n      jump\t// in\n    tag_30:\n      dup1\n      0x1f\n      add\n      0x20\n      dup1\n      swap2\n      div\n      mul\n      0x20\n      add\n      mload(0x40)\n      swap1\n      dup2\n      add\n      0x40\n      mstore\n      dup1\n      swap3\n      swap2\n      swap1\n      dup2\n      dup2\n      mstore\n      0x20\n      add\n      dup3\n      dup1\n      sload\n      tag_32\n      swap1\n      tag_31\n      jump\t// in\n    tag_32:\n      dup1\n      iszero\n      tag_33\n      jumpi\n      dup1\n      0x1f\n      lt\n      tag_34\n      jumpi\n      0x0100\n      dup1\n      dup4\n      sload\n      div\n      mul\n      dup4\n      mstore\n      swap2\n      0x20\n      add\n      swap2\n      jump(tag_33)\n    tag_34:\n      dup3\n      add\n      swap2\n      swap1\n      0x00\n      mstore\n      keccak256(0x00, 0x20)\n      swap1\n    tag_35:\n      dup2\n      sload\n      dup2\n      mstore\n      swap1\n      0x01\n      add\n      swap1\n      0x20\n      add\n      dup1\n      dup4\n      gt\n      tag_35\n      jumpi\n      dup3\n      swap1\n      sub\n      0x1f\n      and\n      dup3\n      add\n      swap2\n    tag_33:\n      pop\n      pop\n      pop\n      pop\n      pop\n      swap1\n      dup1\n      0x01\n      add\n      0x00\n      swap1\n      sload\n      swap1\n      0x0100\n      exp\n      swap1\n      div\n      0xffffffff\n      and\n      swap1\n      pop\n      dup3\n      jump\t// out\n        /* \"#utility.yul\":7:82   */\n    tag_36:\n        /* \"#utility.yul\":40:46   */\n      0x00\n        /* \"#utility.yul\":73:75   */\n      0x40\n        /* \"#utility.yul\":67:76   */\n      mload\n        /* \"#utility.yul\":57:76   */\n      swap1\n      pop\n        /* \"#utility.yul\":7:82   */\n      swap1\n      jump\t// out\n        /* \"#utility.yul\":88:205   */\n    tag_37:\n        /* \"#utility.yul\":197:198   */\n      0x00\n        /* \"#utility.yul\":194:195   */\n      dup1\n        /* \"#utility.yul\":187:199   */\n      revert\n        /* \"#utility.yul\":211:328   */\n    tag_38:\n        /* \"#utility.yul\":320:321   */\n      0x00\n        /* \"#utility.yul\":317:318   */\n      dup1\n        /* \"#utility.yul\":310:322   */\n      revert\n        /* \"#utility.yul\":334:451   */\n    tag_39:\n        /* \"#utility.yul\":443:444   */\n      0x00\n        /* \"#utility.yul\":440:441   */\n      dup1\n        /* \"#utility.yul\":433:445   */\n      revert\n        /* \"#utility.yul\":457:574   */\n    tag_40:\n        /* \"#utility.yul\":566:567   */\n      0x00\n        /* \"#utility.yul\":563:564   */\n      dup1\n        /* \"#utility.yul\":556:568   */\n      revert\n        /* \"#utility.yul\":580:682   */\n    tag_41:\n        /* \"#utility.yul\":621:627   */\n      0x00\n        /* \"#utility.yul\":672:674   */\n      0x1f\n        /* \"#utility.yul\":668:675   */\n      not\n        /* \"#utility.yul\":663:665   */\n      0x1f\n        /* \"#utility.yul\":656:661   */\n      dup4\n        /* \"#utility.yul\":652:666   */\n      add\n        /* \"#utility.yul\":648:676   */\n      and\n        /* \"#utility.yul\":638:676   */\n      swap1\n      pop\n        /* \"#utility.yul\":580:682   */\n      swap2\n      swap1\n      pop\n      jump\t// out\n        /* \"#utility.yul\":688:868   */\n    tag_42:\n        /* \"#utility.yul\":736:813   */\n      0x4e487b7100000000000000000000000000000000000000000000000000000000\n        /* \"#utility.yul\":733:734   */\n      0x00\n        /* \"#utility.yul\":726:814   */\n      mstore\n        /* \"#utility.yul\":833:837   */\n      0x41\n        /* \"#utility.yul\":830:831   */\n      0x04\n        /* \"#utility.yul\":823:838   */\n      mstore\n        /* \"#utility.yul\":857:861   */\n      0x24\n        /* \"#utility.yul\":854:855   */\n      0x00\n        /* \"#utility.yul\":847:862   */\n      revert\n        /* \"#utility.yul\":874:1155   */\n    tag_43:\n        /* \"#utility.yul\":957:984   */\n      tag_87\n        /* \"#utility.yul\":979:983   */\n      dup3\n        /* \"#utility.yul\":957:984   */\n      tag_41\n      jump\t// in\n    tag_87:\n        /* \"#utility.yul\":949:955   */\n      dup2\n        /* \"#utility.yul\":945:985   */\n      add\n        /* \"#utility.yul\":1087:1093   */\n      dup2\n        /* \"#utility.yul\":1075:1085   */\n      dup2\n        /* \"#utility.yul\":1072:1094   */\n      lt\n        /* \"#utility.yul\":1051:1069   */\n      0xffffffffffffffff\n        /* \"#utility.yul\":1039:1049   */\n      dup3\n        /* \"#utility.yul\":1036:1070   */\n      gt\n        /* \"#utility.yul\":1033:1095   */\n      or\n        /* \"#utility.yul\":1030:1118   */\n      iszero\n      tag_88\n      jumpi\n        /* \"#utility.yul\":1098:1116   */\n      tag_89\n      tag_42\n      jump\t// in\n    tag_89:\n        /* \"#utility.yul\":1030:1118   */\n    tag_88:\n        /* \"#utility.yul\":1138:1148   */\n      dup1\n        /* \"#utility.yul\":1134:1136   */\n      0x40\n        /* \"#utility.yul\":1127:1149   */\n      mstore\n        /* \"#utility.yul\":917:1155   */\n      pop\n        /* \"#utility.yul\":874:1155   */\n      pop\n      pop\n      jump\t// out\n        /* \"#utility.yul\":1161:1290   */\n    tag_44:\n        /* \"#utility.yul\":1195:1201   */\n      0x00\n        /* \"#utility.yul\":1222:1242   */\n      tag_91\n      tag_36\n      jump\t// in\n    tag_91:\n        /* \"#utility.yul\":1212:1242   */\n      swap1\n      pop\n        /* \"#utility.yul\":1251:1284   */\n      tag_92\n        /* \"#utility.yul\":1279:1283   */\n      dup3\n        /* \"#utility.yul\":1271:1277   */\n      dup3\n        /* \"#utility.yul\":1251:1284   */\n      tag_43\n      jump\t// in\n    tag_92:\n        /* \"#utility.yul\":1161:1290   */\n      swap2\n      swap1\n      pop\n      jump\t// out\n        /* \"#utility.yul\":1296:1604   */\n    tag_45:\n        /* \"#utility.yul\":1358:1362   */\n      0x00\n        /* \"#utility.yul\":1448:1466   */\n      0xffffffffffffffff\n        /* \"#utility.yul\":1440:1446   */\n      dup3\n        /* \"#utility.yul\":1437:1467   */\n      gt\n        /* \"#utility.yul\":1434:1490   */\n      iszero\n      tag_94\n      jumpi\n        /* \"#utility.yul\":1470:1488   */\n      tag_95\n      tag_42\n      jump\t// in\n    tag_95:\n        /* \"#utility.yul\":1434:1490   */\n    tag_94:\n        /* \"#utility.yul\":1508:1537   */\n      tag_96\n        /* \"#utility.yul\":1530:1536   */\n      dup3\n        /* \"#utility.yul\":1508:1537   */\n      tag_41\n      jump\t// in\n    tag_96:\n        /* \"#utility.yul\":1500:1537   */\n      swap1\n      pop\n        /* \"#utility.yul\":1592:1596   */\n      0x20\n        /* \"#utility.yul\":1586:1590   */\n      dup2\n        /* \"#utility.yul\":1582:1597   */\n      add\n        /* \"#utility.yul\":1574:1597   */\n      swap1\n      pop\n        /* \"#utility.yul\":1296:1604   */\n      swap2\n      swap1\n      pop\n      jump\t// out\n        /* \"#utility.yul\":1610:1758   */\n    tag_46:\n        /* \"#utility.yul\":1708:1714   */\n      dup3\n        /* \"#utility.yul\":1703:1706   */\n      dup2\n        /* \"#utility.yul\":1698:1701   */\n      dup4\n        /* \"#utility.yul\":1685:1715   */\n      calldatacopy\n        /* \"#utility.yul\":1749:1750   */\n      0x00\n        /* \"#utility.yul\":1740:1746   */\n      dup4\n        /* \"#utility.yul\":1735:1738   */\n      dup4\n        /* \"#utility.yul\":1731:1747   */\n      add\n        /* \"#utility.yul\":1724:1751   */\n      mstore\n        /* \"#utility.yul\":1610:1758   */\n      pop\n      pop\n      pop\n      jump\t// out\n        /* \"#utility.yul\":1764:2189   */\n    tag_47:\n        /* \"#utility.yul\":1842:1847   */\n      0x00\n        /* \"#utility.yul\":1867:1933   */\n      tag_99\n        /* \"#utility.yul\":1883:1932   */\n      tag_100\n        /* \"#utility.yul\":1925:1931   */\n      dup5\n        /* \"#utility.yul\":1883:1932   */\n      tag_45\n      jump\t// in\n    tag_100:\n        /* \"#utility.yul\":1867:1933   */\n      tag_44\n      jump\t// in\n    tag_99:\n        /* \"#utility.yul\":1858:1933   */\n      swap1\n      pop\n        /* \"#utility.yul\":1956:1962   */\n      dup3\n        /* \"#utility.yul\":1949:1954   */\n      dup2\n        /* \"#utility.yul\":1942:1963   */\n      mstore\n        /* \"#utility.yul\":1994:1998   */\n      0x20\n        /* \"#utility.yul\":1987:1992   */\n      dup2\n        /* \"#utility.yul\":1983:1999   */\n      add\n        /* \"#utility.yul\":2032:2035   */\n      dup5\n        /* \"#utility.yul\":2023:2029   */\n      dup5\n        /* \"#utility.yul\":2018:2021   */\n      dup5\n        /* \"#utility.yul\":2014:2030   */\n      add\n        /* \"#utility.yul\":2011:2036   */\n      gt\n        /* \"#utility.yul\":2008:2120   */\n      iszero\n      tag_101\n      jumpi\n        /* \"#utility.yul\":2039:2118   */\n      tag_102\n      tag_40\n      jump\t// in\n    tag_102:\n        /* \"#utility.yul\":2008:2120   */\n    tag_101:\n        /* \"#utility.yul\":2129:2183   */\n      tag_103\n        /* \"#utility.yul\":2176:2182   */\n      dup5\n        /* \"#utility.yul\":2171:2174   */\n      dup3\n        /* \"#utility.yul\":2166:2169   */\n      dup6\n        /* \"#utility.yul\":2129:2183   */\n      tag_46\n      jump\t// in\n    tag_103:\n        /* \"#utility.yul\":1848:2189   */\n      pop\n        /* \"#utility.yul\":1764:2189   */\n      swap4\n      swap3\n      pop\n      pop\n      pop\n      jump\t// out\n        /* \"#utility.yul\":2209:2549   */\n    tag_48:\n        /* \"#utility.yul\":2265:2270   */\n      0x00\n        /* \"#utility.yul\":2314:2317   */\n      dup3\n        /* \"#utility.yul\":2307:2311   */\n      0x1f\n        /* \"#utility.yul\":2299:2305   */\n      dup4\n        /* \"#utility.yul\":2295:2312   */\n      add\n        /* \"#utility.yul\":2291:2318   */\n      slt\n        /* \"#utility.yul\":2281:2403   */\n      tag_105\n      jumpi\n        /* \"#utility.yul\":2322:2401   */\n      tag_106\n      tag_39\n      jump\t// in\n    tag_106:\n        /* \"#utility.yul\":2281:2403   */\n    tag_105:\n        /* \"#utility.yul\":2439:2445   */\n      dup2\n        /* \"#utility.yul\":2426:2446   */\n      calldataload\n        /* \"#utility.yul\":2464:2543   */\n      tag_107\n        /* \"#utility.yul\":2539:2542   */\n      dup5\n        /* \"#utility.yul\":2531:2537   */\n      dup3\n        /* \"#utility.yul\":2524:2528   */\n      0x20\n        /* \"#utility.yul\":2516:2522   */\n      dup7\n        /* \"#utility.yul\":2512:2529   */\n      add\n        /* \"#utility.yul\":2464:2543   */\n      tag_47\n      jump\t// in\n    tag_107:\n        /* \"#utility.yul\":2455:2543   */\n      swap2\n      pop\n        /* \"#utility.yul\":2271:2549   */\n      pop\n        /* \"#utility.yul\":2209:2549   */\n      swap3\n      swap2\n      pop\n      pop\n      jump\t// out\n        /* \"#utility.yul\":2555:3064   */\n    tag_8:\n        /* \"#utility.yul\":2624:2630   */\n      0x00\n        /* \"#utility.yul\":2673:2675   */\n      0x20\n        /* \"#utility.yul\":2661:2670   */\n      dup3\n        /* \"#utility.yul\":2652:2659   */\n      dup5\n        /* \"#utility.yul\":2648:2671   */\n      sub\n        /* \"#utility.yul\":2644:2676   */\n      slt\n        /* \"#utility.yul\":2641:2760   */\n      iszero\n      tag_109\n      jumpi\n        /* \"#utility.yul\":2679:2758   */\n      tag_110\n      tag_37\n      jump\t// in\n    tag_110:\n        /* \"#utility.yul\":2641:2760   */\n    tag_109:\n        /* \"#utility.yul\":2827:2828   */\n      0x00\n        /* \"#utility.yul\":2816:2825   */\n      dup3\n        /* \"#utility.yul\":2812:2829   */\n      add\n        /* \"#utility.yul\":2799:2830   */\n      calldataload\n        /* \"#utility.yul\":2857:2875   */\n      0xffffffffffffffff\n        /* \"#utility.yul\":2849:2855   */\n      dup2\n        /* \"#utility.yul\":2846:2876   */\n      gt\n        /* \"#utility.yul\":2843:2960   */\n      iszero\n      tag_111\n      jumpi\n        /* \"#utility.yul\":2879:2958   */\n      tag_112\n      tag_38\n      jump\t// in\n    tag_112:\n        /* \"#utility.yul\":2843:2960   */\n    tag_111:\n        /* \"#utility.yul\":2984:3047   */\n      tag_113\n        /* \"#utility.yul\":3039:3046   */\n      dup5\n        /* \"#utility.yul\":3030:3036   */\n      dup3\n        /* \"#utility.yul\":3019:3028   */\n      dup6\n        /* \"#utility.yul\":3015:3037   */\n      add\n        /* \"#utility.yul\":2984:3047   */\n      tag_48\n      jump\t// in\n    tag_113:\n        /* \"#utility.yul\":2974:3047   */\n      swap2\n      pop\n        /* \"#utility.yul\":2770:3057   */\n      pop\n        /* \"#utility.yul\":2555:3064   */\n      swap3\n      swap2\n      pop\n      pop\n      jump\t// out\n        /* \"#utility.yul\":3070:3163   */\n    tag_49:\n        /* \"#utility.yul\":3106:3113   */\n      0x00\n        /* \"#utility.yul\":3146:3156   */\n      0xffffffff\n        /* \"#utility.yul\":3139:3144   */\n      dup3\n        /* \"#utility.yul\":3135:3157   */\n      and\n        /* \"#utility.yul\":3124:3157   */\n      swap1\n      pop\n        /* \"#utility.yul\":3070:3163   */\n      swap2\n      swap1\n      pop\n      jump\t// out\n        /* \"#utility.yul\":3169:3284   */\n    tag_50:\n        /* \"#utility.yul\":3254:3277   */\n      tag_116\n        /* \"#utility.yul\":3271:3276   */\n      dup2\n        /* \"#utility.yul\":3254:3277   */\n      tag_49\n      jump\t// in\n    tag_116:\n        /* \"#utility.yul\":3249:3252   */\n      dup3\n        /* \"#utility.yul\":3242:3278   */\n      mstore\n        /* \"#utility.yul\":3169:3284   */\n      pop\n      pop\n      jump\t// out\n        /* \"#utility.yul\":3290:3508   */\n    tag_11:\n        /* \"#utility.yul\":3381:3385   */\n      0x00\n        /* \"#utility.yul\":3419:3421   */\n      0x20\n        /* \"#utility.yul\":3408:3417   */\n      dup3\n        /* \"#utility.yul\":3404:3422   */\n      add\n        /* \"#utility.yul\":3396:3422   */\n      swap1\n      pop\n        /* \"#utility.yul\":3432:3501   */\n      tag_118\n        /* \"#utility.yul\":3498:3499   */\n      0x00\n        /* \"#utility.yul\":3487:3496   */\n      dup4\n        /* \"#utility.yul\":3483:3500   */\n      add\n        /* \"#utility.yul\":3474:3480   */\n      dup5\n        /* \"#utility.yul\":3432:3501   */\n      tag_50\n      jump\t// in\n    tag_118:\n        /* \"#utility.yul\":3290:3508   */\n      swap3\n      swap2\n      pop\n      pop\n      jump\t// out\n        /* \"#utility.yul\":3514:3634   */\n    tag_51:\n        /* \"#utility.yul\":3586:3609   */\n      tag_120\n        /* \"#utility.yul\":3603:3608   */\n      dup2\n        /* \"#utility.yul\":3586:3609   */\n      tag_49\n      jump\t// in\n    tag_120:\n        /* \"#utility.yul\":3579:3584   */\n      dup2\n        /* \"#utility.yul\":3576:3610   */\n      eq\n        /* \"#utility.yul\":3566:3628   */\n      tag_121\n      jumpi\n        /* \"#utility.yul\":3624:3625   */\n      0x00\n        /* \"#utility.yul\":3621:3622   */\n      dup1\n        /* \"#utility.yul\":3614:3626   */\n      revert\n        /* \"#utility.yul\":3566:3628   */\n    tag_121:\n        /* \"#utility.yul\":3514:3634   */\n      pop\n      jump\t// out\n        /* \"#utility.yul\":3640:3777   */\n    tag_52:\n        /* \"#utility.yul\":3685:3690   */\n      0x00\n        /* \"#utility.yul\":3723:3729   */\n      dup2\n        /* \"#utility.yul\":3710:3730   */\n      calldataload\n        /* \"#utility.yul\":3701:3730   */\n      swap1\n      pop\n        /* \"#utility.yul\":3739:3771   */\n      tag_123\n        /* \"#utility.yul\":3765:3770   */\n      dup2\n        /* \"#utility.yul\":3739:3771   */\n      tag_51\n      jump\t// in\n    tag_123:\n        /* \"#utility.yul\":3640:3777   */\n      swap3\n      swap2\n      pop\n      pop\n      jump\t// out\n        /* \"#utility.yul\":3783:4435   */\n    tag_14:\n        /* \"#utility.yul\":3860:3866   */\n      0x00\n        /* \"#utility.yul\":3868:3874   */\n      dup1\n        /* \"#utility.yul\":3917:3919   */\n      0x40\n        /* \"#utility.yul\":3905:3914   */\n      dup4\n        /* \"#utility.yul\":3896:3903   */\n      dup6\n        /* \"#utility.yul\":3892:3915   */\n      sub\n        /* \"#utility.yul\":3888:3920   */\n      slt\n        /* \"#utility.yul\":3885:4004   */\n      iszero\n      tag_125\n      jumpi\n        /* \"#utility.yul\":3923:4002   */\n      tag_126\n      tag_37\n      jump\t// in\n    tag_126:\n        /* \"#utility.yul\":3885:4004   */\n    tag_125:\n        /* \"#utility.yul\":4043:4044   */\n      0x00\n        /* \"#utility.yul\":4068:4120   */\n      tag_127\n        /* \"#utility.yul\":4112:4119   */\n      dup6\n        /* \"#utility.yul\":4103:4109   */\n      dup3\n        /* \"#utility.yul\":4092:4101   */\n      dup7\n        /* \"#utility.yul\":4088:4110   */\n      add\n        /* \"#utility.yul\":4068:4120   */\n      tag_52\n      jump\t// in\n    tag_127:\n        /* \"#utility.yul\":4058:4120   */\n      swap3\n      pop\n        /* \"#utility.yul\":4014:4130   */\n      pop\n        /* \"#utility.yul\":4197:4199   */\n      0x20\n        /* \"#utility.yul\":4186:4195   */\n      dup4\n        /* \"#utility.yul\":4182:4200   */\n      add\n        /* \"#utility.yul\":4169:4201   */\n      calldataload\n        /* \"#utility.yul\":4228:4246   */\n      0xffffffffffffffff\n        /* \"#utility.yul\":4220:4226   */\n      dup2\n        /* \"#utility.yul\":4217:4247   */\n      gt\n        /* \"#utility.yul\":4214:4331   */\n      iszero\n      tag_128\n      jumpi\n        /* \"#utility.yul\":4250:4329   */\n      tag_129\n      tag_38\n      jump\t// in\n    tag_129:\n        /* \"#utility.yul\":4214:4331   */\n    tag_128:\n        /* \"#utility.yul\":4355:4418   */\n      tag_130\n        /* \"#utility.yul\":4410:4417   */\n      dup6\n        /* \"#utility.yul\":4401:4407   */\n      dup3\n        /* \"#utility.yul\":4390:4399   */\n      dup7\n        /* \"#utility.yul\":4386:4408   */\n      add\n        /* \"#utility.yul\":4355:4418   */\n      tag_48\n      jump\t// in\n    tag_130:\n        /* \"#utility.yul\":4345:4418   */\n      swap2\n      pop\n        /* \"#utility.yul\":4140:4428   */\n      pop\n        /* \"#utility.yul\":3783:4435   */\n      swap3\n      pop\n      swap3\n      swap1\n      pop\n      jump\t// out\n        /* \"#utility.yul\":4441:4518   */\n    tag_53:\n        /* \"#utility.yul\":4478:4485   */\n      0x00\n        /* \"#utility.yul\":4507:4512   */\n      dup2\n        /* \"#utility.yul\":4496:4512   */\n      swap1\n      pop\n        /* \"#utility.yul\":4441:4518   */\n      swap2\n      swap1\n      pop\n      jump\t// out\n        /* \"#utility.yul\":4524:4646   */\n    tag_54:\n        /* \"#utility.yul\":4597:4621   */\n      tag_133\n        /* \"#utility.yul\":4615:4620   */\n      dup2\n        /* \"#utility.yul\":4597:4621   */\n      tag_53\n      jump\t// in\n    tag_133:\n        /* \"#utility.yul\":4590:4595   */\n      dup2\n        /* \"#utility.yul\":4587:4622   */\n      eq\n        /* \"#utility.yul\":4577:4640   */\n      tag_134\n      jumpi\n        /* \"#utility.yul\":4636:4637   */\n      0x00\n        /* \"#utility.yul\":4633:4634   */\n      dup1\n        /* \"#utility.yul\":4626:4638   */\n      revert\n        /* \"#utility.yul\":4577:4640   */\n    tag_134:\n        /* \"#utility.yul\":4524:4646   */\n      pop\n      jump\t// out\n        /* \"#utility.yul\":4652:4791   */\n    tag_55:\n        /* \"#utility.yul\":4698:4703   */\n      0x00\n        /* \"#utility.yul\":4736:4742   */\n      dup2\n        /* \"#utility.yul\":4723:4743   */\n      calldataload\n        /* \"#utility.yul\":4714:4743   */\n      swap1\n      pop\n        /* \"#utility.yul\":4752:4785   */\n      tag_136\n        /* \"#utility.yul\":4779:4784   */\n      dup2\n        /* \"#utility.yul\":4752:4785   */\n      tag_54\n      jump\t// in\n    tag_136:\n        /* \"#utility.yul\":4652:4791   */\n      swap3\n      swap2\n      pop\n      pop\n      jump\t// out\n        /* \"#utility.yul\":4797:5126   */\n    tag_18:\n        /* \"#utility.yul\":4856:4862   */\n      0x00\n        /* \"#utility.yul\":4905:4907   */\n      0x20\n        /* \"#utility.yul\":4893:4902   */\n      dup3\n        /* \"#utility.yul\":4884:4891   */\n      dup5\n        /* \"#utility.yul\":4880:4903   */\n      sub\n        /* \"#utility.yul\":4876:4908   */\n      slt\n        /* \"#utility.yul\":4873:4992   */\n      iszero\n      tag_138\n      jumpi\n        /* \"#utility.yul\":4911:4990   */\n      tag_139\n      tag_37\n      jump\t// in\n    tag_139:\n        /* \"#utility.yul\":4873:4992   */\n    tag_138:\n        /* \"#utility.yul\":5031:5032   */\n      0x00\n        /* \"#utility.yul\":5056:5109   */\n      tag_140\n        /* \"#utility.yul\":5101:5108   */\n      dup5\n        /* \"#utility.yul\":5092:5098   */\n      dup3\n        /* \"#utility.yul\":5081:5090   */\n      dup6\n        /* \"#utility.yul\":5077:5099   */\n      add\n        /* \"#utility.yul\":5056:5109   */\n      tag_55\n      jump\t// in\n    tag_140:\n        /* \"#utility.yul\":5046:5109   */\n      swap2\n      pop\n        /* \"#utility.yul\":5002:5119   */\n      pop\n        /* \"#utility.yul\":4797:5126   */\n      swap3\n      swap2\n      pop\n      pop\n      jump\t// out\n        /* \"#utility.yul\":5132:5231   */\n    tag_56:\n        /* \"#utility.yul\":5184:5190   */\n      0x00\n        /* \"#utility.yul\":5218:5223   */\n      dup2\n        /* \"#utility.yul\":5212:5224   */\n      mload\n        /* \"#utility.yul\":5202:5224   */\n      swap1\n      pop\n        /* \"#utility.yul\":5132:5231   */\n      swap2\n      swap1\n      pop\n      jump\t// out\n        /* \"#utility.yul\":5237:5406   */\n    tag_57:\n        /* \"#utility.yul\":5321:5332   */\n      0x00\n        /* \"#utility.yul\":5355:5361   */\n      dup3\n        /* \"#utility.yul\":5350:5353   */\n      dup3\n        /* \"#utility.yul\":5343:5362   */\n      mstore\n        /* \"#utility.yul\":5395:5399   */\n      0x20\n        /* \"#utility.yul\":5390:5393   */\n      dup3\n        /* \"#utility.yul\":5386:5400   */\n      add\n        /* \"#utility.yul\":5371:5400   */\n      swap1\n      pop\n        /* \"#utility.yul\":5237:5406   */\n      swap3\n      swap2\n      pop\n      pop\n      jump\t// out\n        /* \"#utility.yul\":5412:5551   */\n    tag_58:\n        /* \"#utility.yul\":5501:5507   */\n      dup3\n        /* \"#utility.yul\":5496:5499   */\n      dup2\n        /* \"#utility.yul\":5491:5494   */\n      dup4\n        /* \"#utility.yul\":5485:5508   */\n      mcopy\n        /* \"#utility.yul\":5542:5543   */\n      0x00\n        /* \"#utility.yul\":5533:5539   */\n      dup4\n        /* \"#utility.yul\":5528:5531   */\n      dup4\n        /* \"#utility.yul\":5524:5540   */\n      add\n        /* \"#utility.yul\":5517:5544   */\n      mstore\n        /* \"#utility.yul\":5412:5551   */\n      pop\n      pop\n      pop\n      jump\t// out\n        /* \"#utility.yul\":5557:5934   */\n    tag_59:\n        /* \"#utility.yul\":5645:5648   */\n      0x00\n        /* \"#utility.yul\":5673:5712   */\n      tag_145\n        /* \"#utility.yul\":5706:5711   */\n      dup3\n        /* \"#utility.yul\":5673:5712   */\n      tag_56\n      jump\t// in\n    tag_145:\n        /* \"#utility.yul\":5728:5799   */\n      tag_146\n        /* \"#utility.yul\":5792:5798   */\n      dup2\n        /* \"#utility.yul\":5787:5790   */\n      dup6\n        /* \"#utility.yul\":5728:5799   */\n      tag_57\n      jump\t// in\n    tag_146:\n        /* \"#utility.yul\":5721:5799   */\n      swap4\n      pop\n        /* \"#utility.yul\":5808:5873   */\n      tag_147\n        /* \"#utility.yul\":5866:5872   */\n      dup2\n        /* \"#utility.yul\":5861:5864   */\n      dup6\n        /* \"#utility.yul\":5854:5858   */\n      0x20\n        /* \"#utility.yul\":5847:5852   */\n      dup7\n        /* \"#utility.yul\":5843:5859   */\n      add\n        /* \"#utility.yul\":5808:5873   */\n      tag_58\n      jump\t// in\n    tag_147:\n        /* \"#utility.yul\":5898:5927   */\n      tag_148\n        /* \"#utility.yul\":5920:5926   */\n      dup2\n        /* \"#utility.yul\":5898:5927   */\n      tag_41\n      jump\t// in\n    tag_148:\n        /* \"#utility.yul\":5893:5896   */\n      dup5\n        /* \"#utility.yul\":5889:5928   */\n      add\n        /* \"#utility.yul\":5882:5928   */\n      swap2\n      pop\n        /* \"#utility.yul\":5649:5934   */\n      pop\n        /* \"#utility.yul\":5557:5934   */\n      swap3\n      swap2\n      pop\n      pop\n      jump\t// out\n        /* \"#utility.yul\":5940:6359   */\n    tag_21:\n        /* \"#utility.yul\":6079:6083   */\n      0x00\n        /* \"#utility.yul\":6117:6119   */\n      0x40\n        /* \"#utility.yul\":6106:6115   */\n      dup3\n        /* \"#utility.yul\":6102:6120   */\n      add\n        /* \"#utility.yul\":6094:6120   */\n      swap1\n      pop\n        /* \"#utility.yul\":6166:6175   */\n      dup2\n        /* \"#utility.yul\":6160:6164   */\n      dup2\n        /* \"#utility.yul\":6156:6176   */\n      sub\n        /* \"#utility.yul\":6152:6153   */\n      0x00\n        /* \"#utility.yul\":6141:6150   */\n      dup4\n        /* \"#utility.yul\":6137:6154   */\n      add\n        /* \"#utility.yul\":6130:6177   */\n      mstore\n        /* \"#utility.yul\":6194:6272   */\n      tag_150\n        /* \"#utility.yul\":6267:6271   */\n      dup2\n        /* \"#utility.yul\":6258:6264   */\n      dup6\n        /* \"#utility.yul\":6194:6272   */\n      tag_59\n      jump\t// in\n    tag_150:\n        /* \"#utility.yul\":6186:6272   */\n      swap1\n      pop\n        /* \"#utility.yul\":6282:6352   */\n      tag_151\n        /* \"#utility.yul\":6348:6350   */\n      0x20\n        /* \"#utility.yul\":6337:6346   */\n      dup4\n        /* \"#utility.yul\":6333:6351   */\n      add\n        /* \"#utility.yul\":6324:6330   */\n      dup5\n        /* \"#utility.yul\":6282:6352   */\n      tag_50\n      jump\t// in\n    tag_151:\n        /* \"#utility.yul\":5940:6359   */\n      swap4\n      swap3\n      pop\n      pop\n      pop\n      jump\t// out\n        /* \"#utility.yul\":6365:6513   */\n    tag_60:\n        /* \"#utility.yul\":6467:6478   */\n      0x00\n        /* \"#utility.yul\":6504:6507   */\n      dup2\n        /* \"#utility.yul\":6489:6507   */\n      swap1\n      pop\n        /* \"#utility.yul\":6365:6513   */\n      swap3\n      swap2\n      pop\n      pop\n      jump\t// out\n        /* \"#utility.yul\":6519:6909   */\n    tag_61:\n        /* \"#utility.yul\":6625:6628   */\n      0x00\n        /* \"#utility.yul\":6653:6692   */\n      tag_154\n        /* \"#utility.yul\":6686:6691   */\n      dup3\n        /* \"#utility.yul\":6653:6692   */\n      tag_56\n      jump\t// in\n    tag_154:\n        /* \"#utility.yul\":6708:6797   */\n      tag_155\n        /* \"#utility.yul\":6790:6796   */\n      dup2\n        /* \"#utility.yul\":6785:6788   */\n      dup6\n        /* \"#utility.yul\":6708:6797   */\n      tag_60\n      jump\t// in\n    tag_155:\n        /* \"#utility.yul\":6701:6797   */\n      swap4\n      pop\n        /* \"#utility.yul\":6806:6871   */\n      tag_156\n        /* \"#utility.yul\":6864:6870   */\n      dup2\n        /* \"#utility.yul\":6859:6862   */\n      dup6\n        /* \"#utility.yul\":6852:6856   */\n      0x20\n        /* \"#utility.yul\":6845:6850   */\n      dup7\n        /* \"#utility.yul\":6841:6857   */\n      add\n        /* \"#utility.yul\":6806:6871   */\n      tag_58\n      jump\t// in\n    tag_156:\n        /* \"#utility.yul\":6896:6902   */\n      dup1\n        /* \"#utility.yul\":6891:6894   */\n      dup5\n        /* \"#utility.yul\":6887:6903   */\n      add\n        /* \"#utility.yul\":6880:6903   */\n      swap2\n      pop\n        /* \"#utility.yul\":6629:6909   */\n      pop\n        /* \"#utility.yul\":6519:6909   */\n      swap3\n      swap2\n      pop\n      pop\n      jump\t// out\n        /* \"#utility.yul\":6915:7190   */\n    tag_24:\n        /* \"#utility.yul\":7047:7050   */\n      0x00\n        /* \"#utility.yul\":7069:7164   */\n      tag_158\n        /* \"#utility.yul\":7160:7163   */\n      dup3\n        /* \"#utility.yul\":7151:7157   */\n      dup5\n        /* \"#utility.yul\":7069:7164   */\n      tag_61\n      jump\t// in\n    tag_158:\n        /* \"#utility.yul\":7062:7164   */\n      swap2\n      pop\n        /* \"#utility.yul\":7181:7184   */\n      dup2\n        /* \"#utility.yul\":7174:7184   */\n      swap1\n      pop\n        /* \"#utility.yul\":6915:7190   */\n      swap3\n      swap2\n      pop\n      pop\n      jump\t// out\n        /* \"#utility.yul\":7196:7376   */\n    tag_62:\n        /* \"#utility.yul\":7244:7321   */\n      0x4e487b7100000000000000000000000000000000000000000000000000000000\n        /* \"#utility.yul\":7241:7242   */\n      0x00\n        /* \"#utility.yul\":7234:7322   */\n      mstore\n        /* \"#utility.yul\":7341:7345   */\n      0x22\n        /* \"#utility.yul\":7338:7339   */\n      0x04\n        /* \"#utility.yul\":7331:7346   */\n      mstore\n        /* \"#utility.yul\":7365:7369   */\n      0x24\n        /* \"#utility.yul\":7362:7363   */\n      0x00\n        /* \"#utility.yul\":7355:7370   */\n      revert\n        /* \"#utility.yul\":7382:7702   */\n    tag_31:\n        /* \"#utility.yul\":7426:7432   */\n      0x00\n        /* \"#utility.yul\":7463:7464   */\n      0x02\n        /* \"#utility.yul\":7457:7461   */\n      dup3\n        /* \"#utility.yul\":7453:7465   */\n      div\n        /* \"#utility.yul\":7443:7465   */\n      swap1\n      pop\n        /* \"#utility.yul\":7510:7511   */\n      0x01\n        /* \"#utility.yul\":7504:7508   */\n      dup3\n        /* \"#utility.yul\":7500:7512   */\n      and\n        /* \"#utility.yul\":7531:7549   */\n      dup1\n        /* \"#utility.yul\":7521:7602   */\n      tag_161\n      jumpi\n        /* \"#utility.yul\":7587:7591   */\n      0x7f\n        /* \"#utility.yul\":7579:7585   */\n      dup3\n        /* \"#utility.yul\":7575:7592   */\n      and\n        /* \"#utility.yul\":7565:7592   */\n      swap2\n      pop\n        /* \"#utility.yul\":7521:7602   */\n    tag_161:\n        /* \"#utility.yul\":7649:7651   */\n      0x20\n        /* \"#utility.yul\":7641:7647   */\n      dup3\n        /* \"#utility.yul\":7638:7652   */\n      lt\n        /* \"#utility.yul\":7618:7636   */\n      dup2\n        /* \"#utility.yul\":7615:7653   */\n      sub\n        /* \"#utility.yul\":7612:7696   */\n      tag_162\n      jumpi\n        /* \"#utility.yul\":7668:7686   */\n      tag_163\n      tag_62\n      jump\t// in\n    tag_163:\n        /* \"#utility.yul\":7612:7696   */\n    tag_162:\n        /* \"#utility.yul\":7433:7702   */\n      pop\n        /* \"#utility.yul\":7382:7702   */\n      swap2\n      swap1\n      pop\n      jump\t// out\n        /* \"#utility.yul\":7708:7849   */\n    tag_63:\n        /* \"#utility.yul\":7757:7761   */\n      0x00\n        /* \"#utility.yul\":7780:7783   */\n      dup2\n        /* \"#utility.yul\":7772:7783   */\n      swap1\n      pop\n        /* \"#utility.yul\":7803:7806   */\n      dup2\n        /* \"#utility.yul\":7800:7801   */\n      0x00\n        /* \"#utility.yul\":7793:7807   */\n      mstore\n        /* \"#utility.yul\":7837:7841   */\n      0x20\n        /* \"#utility.yul\":7834:7835   */\n      0x00\n        /* \"#utility.yul\":7824:7842   */\n      keccak256\n        /* \"#utility.yul\":7816:7842   */\n      swap1\n      pop\n        /* \"#utility.yul\":7708:7849   */\n      swap2\n      swap1\n      pop\n      jump\t// out\n        /* \"#utility.yul\":7855:7948   */\n    tag_64:\n        /* \"#utility.yul\":7892:7898   */\n      0x00\n        /* \"#utility.yul\":7939:7941   */\n      0x20\n        /* \"#utility.yul\":7934:7936   */\n      0x1f\n        /* \"#utility.yul\":7927:7932   */\n      dup4\n        /* \"#utility.yul\":7923:7937   */\n      add\n        /* \"#utility.yul\":7919:7942   */\n      div\n        /* \"#utility.yul\":7909:7942   */\n      swap1\n      pop\n        /* \"#utility.yul\":7855:7948   */\n      swap2\n      swap1\n      pop\n      jump\t// out\n        /* \"#utility.yul\":7954:8061   */\n    tag_65:\n        /* \"#utility.yul\":7998:8006   */\n      0x00\n        /* \"#utility.yul\":8048:8053   */\n      dup3\n        /* \"#utility.yul\":8042:8046   */\n      dup3\n        /* \"#utility.yul\":8038:8054   */\n      shl\n        /* \"#utility.yul\":8017:8054   */\n      swap1\n      pop\n        /* \"#utility.yul\":7954:8061   */\n      swap3\n      swap2\n      pop\n      pop\n      jump\t// out\n        /* \"#utility.yul\":8067:8460   */\n    tag_66:\n        /* \"#utility.yul\":8136:8142   */\n      0x00\n        /* \"#utility.yul\":8186:8187   */\n      0x08\n        /* \"#utility.yul\":8174:8184   */\n      dup4\n        /* \"#utility.yul\":8170:8188   */\n      mul\n        /* \"#utility.yul\":8209:8306   */\n      tag_168\n        /* \"#utility.yul\":8239:8305   */\n      0xffffffffffffffffffffffffffffffffffffffffffffffffffffffffffffffff\n        /* \"#utility.yul\":8228:8237   */\n      dup3\n        /* \"#utility.yul\":8209:8306   */\n      tag_65\n      jump\t// in\n    tag_168:\n        /* \"#utility.yul\":8327:8366   */\n      tag_169\n        /* \"#utility.yul\":8357:8365   */\n      dup7\n        /* \"#utility.yul\":8346:8355   */\n      dup4\n        /* \"#utility.yul\":8327:8366   */\n      tag_65\n      jump\t// in\n    tag_169:\n        /* \"#utility.yul\":8315:8366   */\n      swap6\n      pop\n        /* \"#utility.yul\":8399:8403   */\n      dup1\n        /* \"#utility.yul\":8395:8404   */\n      not\n        /* \"#utility.yul\":8388:8393   */\n      dup5\n        /* \"#utility.yul\":8384:8405   */\n      and\n        /* \"#utility.yul\":8375:8405   */\n      swap4\n      pop\n        /* \"#utility.yul\":8448:8452   */\n      dup1\n        /* \"#utility.yul\":8438:8446   */\n      dup7\n        /* \"#utility.yul\":8434:8453   */\n      and\n        /* \"#utility.yul\":8427:8432   */\n      dup5\n        /* \"#utility.yul\":8424:8454   */\n      or\n        /* \"#utility.yul\":8414:8454   */\n      swap3\n      pop\n        /* \"#utility.yul\":8143:8460   */\n      pop\n      pop\n        /* \"#utility.yul\":8067:8460   */\n      swap4\n      swap3\n      pop\n      pop\n      pop\n      jump\t// out\n        /* \"#utility.yul\":8466:8526   */\n    tag_67:\n        /* \"#utility.yul\":8494:8497   */\n      0x00\n        /* \"#utility.yul\":8515:8520   */\n      dup2\n        /* \"#utility.yul\":8508:8520   */\n      swap1\n      pop\n        /* \"#utility.yul\":8466:8526   */\n      swap2\n      swap1\n      pop\n      jump\t// out\n        /* \"#utility.yul\":8532:8674   */\n    tag_68:\n        /* \"#utility.yul\":8582:8591   */\n      0x00\n        /* \"#utility.yul\":8615:8668   */\n      tag_172\n        /* \"#utility.yul\":8633:8667   */\n      tag_173\n        /* \"#utility.yul\":8642:8666   */\n      tag_174\n        /* \"#utility.yul\":8660:8665   */\n      dup5\n        /* \"#utility.yul\":8642:8666   */\n      tag_53\n      jump\t// in\n    tag_174:\n        /* \"#utility.yul\":8633:8667   */\n      tag_67\n      jump\t// in\n    tag_173:\n        /* \"#utility.yul\":8615:8668   */\n      tag_53\n      jump\t// in\n    tag_172:\n        /* \"#utility.yul\":8602:8668   */\n      swap1\n      pop\n        /* \"#utility.yul\":8532:8674   */\n      swap2\n      swap1\n      pop\n      jump\t// out\n        /* \"#utility.yul\":8680:8755   */\n    tag_69:\n        /* \"#utility.yul\":8723:8726   */\n      0x00\n        /* \"#utility.yul\":8744:8749   */\n      dup2\n        /* \"#utility.yul\":8737:8749   */\n      swap1\n      pop\n        /* \"#utility.yul\":8680:8755   */\n      swap2\n      swap1\n      pop\n      jump\t// out\n        /* \"#utility.yul\":8761:9030   */\n    tag_70:\n        /* \"#utility.yul\":8871:8910   */\n      tag_177\n        /* \"#utility.yul\":8902:8909   */\n      dup4\n        /* \"#utility.yul\":8871:8910   */\n      tag_68\n      jump\t// in\n    tag_177:\n        /* \"#utility.yul\":8932:9023   */\n      tag_178\n        /* \"#utility.yul\":8981:9022   */\n      tag_179\n        /* \"#utility.yul\":9005:9021   */\n      dup3\n        /* \"#utility.yul\":8981:9022   */\n      tag_69\n      jump\t// in\n    tag_179:\n        /* \"#utility.yul\":8973:8979   */\n      dup5\n        /* \"#utility.yul\":8966:8970   */\n      dup5\n        /* \"#utility.yul\":8960:8971   */\n      sload\n        /* \"#utility.yul\":8932:9023   */\n      tag_66\n      jump\t// in\n    tag_178:\n        /* \"#utility.yul\":8926:8930   */\n      dup3\n        /* \"#utility.yul\":8919:9024   */\n      sstore\n        /* \"#utility.yul\":8837:9030   */\n      pop\n        /* \"#utility.yul\":8761:9030   */\n      pop\n      pop\n      pop\n      jump\t// out\n        /* \"#utility.yul\":9036:9109   */\n    tag_71:\n        /* \"#utility.yul\":9081:9084   */\n      0x00\n        /* \"#utility.yul\":9036:9109   */\n      swap1\n      jump\t// out\n        /* \"#utility.yul\":9115:9304   */\n    tag_72:\n        /* \"#utility.yul\":9192:9224   */\n      tag_182\n      tag_71\n      jump\t// in\n    tag_182:\n        /* \"#utility.yul\":9233:9298   */\n      tag_183\n        /* \"#utility.yul\":9291:9297   */\n      dup2\n        /* \"#utility.yul\":9283:9289   */\n      dup5\n        /* \"#utility.yul\":9277:9281   */\n      dup5\n        /* \"#utility.yul\":9233:9298   */\n      tag_70\n      jump\t// in\n    tag_183:\n        /* \"#utility.yul\":9168:9304   */\n      pop\n        /* \"#utility.yul\":9115:9304   */\n      pop\n      pop\n      jump\t// out\n        /* \"#utility.yul\":9310:9496   */\n    tag_73:\n        /* \"#utility.yul\":9370:9490   */\n    tag_185:\n        /* \"#utility.yul\":9387:9390   */\n      dup2\n        /* \"#utility.yul\":9380:9385   */\n      dup2\n        /* \"#utility.yul\":9377:9391   */\n      lt\n        /* \"#utility.yul\":9370:9490   */\n      iszero\n      tag_187\n      jumpi\n        /* \"#utility.yul\":9441:9480   */\n      tag_188\n        /* \"#utility.yul\":9478:9479   */\n      0x00\n        /* \"#utility.yul\":9471:9476   */\n      dup3\n        /* \"#utility.yul\":9441:9480   */\n      tag_72\n      jump\t// in\n    tag_188:\n        /* \"#utility.yul\":9414:9415   */\n      0x01\n        /* \"#utility.yul\":9407:9412   */\n      dup2\n        /* \"#utility.yul\":9403:9416   */\n      add\n        /* \"#utility.yul\":9394:9416   */\n      swap1\n      pop\n        /* \"#utility.yul\":9370:9490   */\n      jump(tag_185)\n    tag_187:\n        /* \"#utility.yul\":9310:9496   */\n      pop\n      pop\n      jump\t// out\n        /* \"#utility.yul\":9502:10045   */\n    tag_74:\n        /* \"#utility.yul\":9603:9605   */\n      0x1f\n        /* \"#utility.yul\":9598:9601   */\n      dup3\n        /* \"#utility.yul\":9595:9606   */\n      gt\n        /* \"#utility.yul\":9592:10038   */\n      iszero\n      tag_190\n      jumpi\n        /* \"#utility.yul\":9637:9675   */\n      tag_191\n        /* \"#utility.yul\":9669:9674   */\n      dup2\n        /* \"#utility.yul\":9637:9675   */\n      tag_63\n      jump\t// in\n    tag_191:\n        /* \"#utility.yul\":9721:9750   */\n      tag_192\n        /* \"#utility.yul\":9739:9749   */\n      dup5\n        /* \"#utility.yul\":9721:9750   */\n      tag_64\n      jump\t// in\n    tag_192:\n        /* \"#utility.yul\":9711:9719   */\n      dup2\n        /* \"#utility.yul\":9707:9751   */\n      add\n        /* \"#utility.yul\":9904:9906   */\n      0x20\n        /* \"#utility.yul\":9892:9902   */\n      dup6\n        /* \"#utility.yul\":9889:9907   */\n      lt\n        /* \"#utility.yul\":9886:9935   */\n      iszero\n      tag_193\n      jumpi\n        /* \"#utility.yul\":9925:9933   */\n      dup2\n        /* \"#utility.yul\":9910:9933   */\n      swap1\n      pop\n        /* \"#utility.yul\":9886:9935   */\n    tag_193:\n        /* \"#utility.yul\":9948:10028   */\n      tag_194\n        /* \"#utility.yul\":10004:10026   */\n      tag_195\n        /* \"#utility.yul\":10022:10025   */\n      dup6\n        /* \"#utility.yul\":10004:10026   */\n      tag_64\n      jump\t// in\n    tag_195:\n        /* \"#utility.yul\":9994:10002   */\n      dup4\n        /* \"#utility.yul\":9990:10027   */\n      add\n        /* \"#utility.yul\":9977:9988   */\n      dup3\n        /* \"#utility.yul\":9948:10028   */\n      tag_73\n      jump\t// in\n    tag_194:\n        /* \"#utility.yul\":9607:10038   */\n      pop\n      pop\n        /* \"#utility.yul\":9592:10038   */\n    tag_190:\n        /* \"#utility.yul\":9502:10045   */\n      pop\n      pop\n      pop\n      jump\t// out\n        /* \"#utility.yul\":10051:10168   */\n    tag_75:\n        /* \"#utility.yul\":10105:10113   */\n      0x00\n        /* \"#utility.yul\":10155:10160   */\n      dup3\n        /* \"#utility.yul\":10149:10153   */\n      dup3\n        /* \"#utility.yul\":10145:10161   */\n      shr\n        /* \"#utility.yul\":10124:10161   */\n      swap1\n      pop\n        /* \"#utility.yul\":10051:10168   */\n      swap3\n      swap2\n      pop\n      pop\n      jump\t// out\n        /* \"#utility.yul\":10174:10343   */\n    tag_76:\n        /* \"#utility.yul\":10218:10224   */\n      0x00\n        /* \"#utility.yul\":10251:10302   */\n      tag_198\n        /* \"#utility.yul\":10299:10300   */\n      0x00\n        /* \"#utility.yul\":10295:10301   */\n      not\n        /* \"#utility.yul\":10287:10292   */\n      dup5\n        /* \"#utility.yul\":10284:10285   */\n      0x08\n        /* \"#utility.yul\":10280:10293   */\n      mul\n        /* \"#utility.yul\":10251:10302   */\n      tag_75\n      jump\t// in\n    tag_198:\n        /* \"#utility.yul\":10247:10303   */\n      not\n        /* \"#utility.yul\":10332:10336   */\n      dup1\n        /* \"#utility.yul\":10326:10330   */\n      dup4\n        /* \"#utility.yul\":10322:10337   */\n      and\n        /* \"#utility.yul\":10312:10337   */\n      swap2\n      pop\n        /* \"#utility.yul\":10225:10343   */\n      pop\n        /* \"#utility.yul\":10174:10343   */\n      swap3\n      swap2\n      pop\n      pop\n      jump\t// out\n        /* \"#utility.yul\":10348:10643   */\n    tag_77:\n        /* \"#utility.yul\":10424:10428   */\n      0x00\n        /* \"#utility.yul\":10570:10599   */\n      tag_200\n        /* \"#utility.yul\":10595:10598   */\n      dup4\n        /* \"#utility.yul\":10589:10593   */\n      dup4\n        /* \"#utility.yul\":10570:10599   */\n      tag_76\n      jump\t// in\n    tag_200:\n        /* \"#utility.yul\":10562:10599   */\n      swap2\n      pop\n        /* \"#utility.yul\":10632:10635   */\n      dup3\n        /* \"#utility.yul\":10629:10630   */\n      0x02\n        /* \"#utility.yul\":10625:10636   */\n      mul\n        /* \"#utility.yul\":10619:10623   */\n      dup3\n        /* \"#utility.yul\":10616:10637   */\n      or\n        /* \"#utility.yul\":10608:10637   */\n      swap1\n      pop\n        /* \"#utility.yul\":10348:10643   */\n      swap3\n      swap2\n      pop\n      pop\n      jump\t// out\n        /* \"#utility.yul\":10648:12043   */\n    tag_27:\n        /* \"#utility.yul\":10765:10802   */\n      tag_202\n        /* \"#utility.yul\":10798:10801   */\n      dup3\n        /* \"#utility.yul\":10765:10802   */\n      tag_56\n      jump\t// in\n    tag_202:\n        /* \"#utility.yul\":10867:10885   */\n      0xffffffffffffffff\n        /* \"#utility.yul\":10859:10865   */\n      dup2\n        /* \"#utility.yul\":10856:10886   */\n      gt\n        /* \"#utility.yul\":10853:10909   */\n      iszero\n      tag_203\n      jumpi\n        /* \"#utility.yul\":10889:10907   */\n      tag_204\n      tag_42\n      jump\t// in\n    tag_204:\n        /* \"#utility.yul\":10853:10909   */\n    tag_203:\n        /* \"#utility.yul\":10933:10971   */\n      tag_205\n        /* \"#utility.yul\":10965:10969   */\n      dup3\n        /* \"#utility.yul\":10959:10970   */\n      sload\n        /* \"#utility.yul\":10933:10971   */\n      tag_31\n      jump\t// in\n    tag_205:\n        /* \"#utility.yul\":11018:11085   */\n      tag_206\n        /* \"#utility.yul\":11078:11084   */\n      dup3\n        /* \"#utility.yul\":11070:11076   */\n      dup3\n        /* \"#utility.yul\":11064:11068   */\n      dup6\n        /* \"#utility.yul\":11018:11085   */\n      tag_74\n      jump\t// in\n    tag_206:\n        /* \"#utility.yul\":11112:11113   */\n      0x00\n        /* \"#utility.yul\":11136:11140   */\n      0x20\n        /* \"#utility.yul\":11123:11140   */\n      swap1\n      pop\n        /* \"#utility.yul\":11168:11170   */\n      0x1f\n        /* \"#utility.yul\":11160:11166   */\n      dup4\n        /* \"#utility.yul\":11157:11171   */\n      gt\n        /* \"#utility.yul\":11185:11186   */\n      0x01\n        /* \"#utility.yul\":11180:11798   */\n      dup2\n      eq\n      tag_208\n      jumpi\n        /* \"#utility.yul\":11842:11843   */\n      0x00\n        /* \"#utility.yul\":11859:11865   */\n      dup5\n        /* \"#utility.yul\":11856:11933   */\n      iszero\n      tag_209\n      jumpi\n        /* \"#utility.yul\":11908:11917   */\n      dup3\n        /* \"#utility.yul\":11903:11906   */\n      dup8\n        /* \"#utility.yul\":11899:11918   */\n      add\n        /* \"#utility.yul\":11893:11919   */\n      mload\n        /* \"#utility.yul\":11884:11919   */\n      swap1\n      pop\n        /* \"#utility.yul\":11856:11933   */\n    tag_209:\n        /* \"#utility.yul\":11959:12026   */\n      tag_210\n        /* \"#utility.yul\":12019:12025   */\n      dup6\n        /* \"#utility.yul\":12012:12017   */\n      dup3\n        /* \"#utility.yul\":11959:12026   */\n      tag_77\n      jump\t// in\n    tag_210:\n        /* \"#utility.yul\":11953:11957   */\n      dup7\n        /* \"#utility.yul\":11946:12027   */\n      sstore\n        /* \"#utility.yul\":11815:12037   */\n      pop\n        /* \"#utility.yul\":11150:12037   */\n      jump(tag_207)\n        /* \"#utility.yul\":11180:11798   */\n    tag_208:\n        /* \"#utility.yul\":11232:11236   */\n      0x1f\n        /* \"#utility.yul\":11228:11237   */\n      not\n        /* \"#utility.yul\":11220:11226   */\n      dup5\n        /* \"#utility.yul\":11216:11238   */\n      and\n        /* \"#utility.yul\":11266:11303   */\n      tag_211\n        /* \"#utility.yul\":11298:11302   */\n      dup7\n        /* \"#utility.yul\":11266:11303   */\n      tag_63\n      jump\t// in\n    tag_211:\n        /* \"#utility.yul\":11325:11326   */\n      0x00\n        /* \"#utility.yul\":11339:11547   */\n    tag_212:\n        /* \"#utility.yul\":11353:11360   */\n      dup3\n        /* \"#utility.yul\":11350:11351   */\n      dup2\n        /* \"#utility.yul\":11347:11361   */\n      lt\n        /* \"#utility.yul\":11339:11547   */\n      iszero\n      tag_214\n      jumpi\n        /* \"#utility.yul\":11432:11441   */\n      dup5\n        /* \"#utility.yul\":11427:11430   */\n      dup10\n        /* \"#utility.yul\":11423:11442   */\n      add\n        /* \"#utility.yul\":11417:11443   */\n      mload\n        /* \"#utility.yul\":11409:11415   */\n      dup3\n        /* \"#utility.yul\":11402:11444   */\n      sstore\n        /* \"#utility.yul\":11483:11484   */\n      0x01\n        /* \"#utility.yul\":11475:11481   */\n      dup3\n        /* \"#utility.yul\":11471:11485   */\n      add\n        /* \"#utility.yul\":11461:11485   */\n      swap2\n      pop\n        /* \"#utility.yul\":11530:11532   */\n      0x20\n        /* \"#utility.yul\":11519:11528   */\n      dup6\n        /* \"#utility.yul\":11515:11533   */\n      add\n        /* \"#utility.yul\":11502:11533   */\n      swap5\n      pop\n        /* \"#utility.yul\":11376:11380   */\n      0x20\n        /* \"#utility.yul\":11373:11374   */\n      dup2\n        /* \"#utility.yul\":11369:11381   */\n      add\n        /* \"#utility.yul\":11364:11381   */\n      swap1\n      pop\n        /* \"#utility.yul\":11339:11547   */\n      jump(tag_212)\n    tag_214:\n        /* \"#utility.yul\":11575:11581   */\n      dup7\n        /* \"#utility.yul\":11566:11573   */\n      dup4\n        /* \"#utility.yul\":11563:11582   */\n      lt\n        /* \"#utility.yul\":11560:11739   */\n      iszero\n      tag_215\n      jumpi\n        /* \"#utility.yul\":11633:11642   */\n      dup5\n        /* \"#utility.yul\":11628:11631   */\n      dup10\n        /* \"#utility.yul\":11624:11643   */\n      add\n        /* \"#utility.yul\":11618:11644   */\n      mload\n        /* \"#utility.yul\":11676:11724   */\n      tag_216\n        /* \"#utility.yul\":11718:11722   */\n      0x1f\n        /* \"#utility.yul\":11710:11716   */\n      dup10\n        /* \"#utility.yul\":11706:11723   */\n      and\n        /* \"#utility.yul\":11695:11704   */\n      dup3\n        /* \"#utility.yul\":11676:11724   */\n      tag_76\n      jump\t// in\n    tag_216:\n        /* \"#utility.yul\":11668:11674   */\n      dup4\n        /* \"#utility.yul\":11661:11725   */\n      sstore\n        /* \"#utility.yul\":11583:11739   */\n      pop\n        /* \"#utility.yul\":11560:11739   */\n    tag_215:\n        /* \"#utility.yul\":11785:11786   */\n      0x01\n        /* \"#utility.yul\":11781:11782   */\n      0x02\n        /* \"#utility.yul\":11773:11779   */\n      dup9\n        /* \"#utility.yul\":11769:11783   */\n      mul\n        /* \"#utility.yul\":11765:11787   */\n      add\n        /* \"#utility.yul\":11759:11763   */\n      dup9\n        /* \"#utility.yul\":11752:11788   */\n      sstore\n        /* \"#utility.yul\":11187:11798   */\n      pop\n      pop\n      pop\n        /* \"#utility.yul\":11150:12037   */\n    tag_207:\n      pop\n        /* \"#utility.yul\":10740:12043   */\n      pop\n      pop\n      pop\n        /* \"#utility.yul\":10648:12043   */\n      pop\n      pop\n      jump\t// out\n\n    auxdata: 0xa2646970667358221220334a78899d962d3e4280fa3879d1244488362e88e0873deb072b7d3520e17e1564736f6c634300081a0033\n}\n",
				"bytecode": {
					"linkReferences": {},
					"object": "6080604052348015600e575f80fd5b506109088061001c5f395ff3fe608060405234801561000f575f80fd5b506004361061003f575f3560e01c80634cdd154f146100435780635eb5b344146100735780639e7a13ad1461008f575b5f80fd5b61005d600480360381019061005891906103cb565b6100c0565b60405161006a9190610430565b60405180910390f35b61008d60048036038101906100889190610473565b6100f8565b005b6100a960048036038101906100a49190610500565b6101bb565b6040516100b792919061058b565b60405180910390f35b6001818051602081018201805184825260208301602085012081835280955050505050505f915054906101000a900463ffffffff1681565b5f60405180604001604052808381526020018463ffffffff1681525090508260018360405161012791906105f3565b90815260200160405180910390205f6101000a81548163ffffffff021916908363ffffffff1602179055505f81908060018154018082558091505060019003905f5260205f2090600202015f909190919091505f820151815f01908161018d9190610803565b506020820151816001015f6101000a81548163ffffffff021916908363ffffffff1602179055505050505050565b5f81815481106101c9575f80fd5b905f5260205f2090600202015f91509050805f0180546101e890610636565b80601f016020809104026020016040519081016040528092919081815260200182805461021490610636565b801561025f5780601f106102365761010080835404028352916020019161025f565b820191905f5260205f20905b81548152906001019060200180831161024257829003601f168201915b505050505090806001015f9054906101000a900463ffffffff16905082565b5f604051905090565b5f80fd5b5f80fd5b5f80fd5b5f80fd5b5f601f19601f8301169050919050565b7f4e487b71000000000000000000000000000000000000000000000000000000005f52604160045260245ffd5b6102dd82610297565b810181811067ffffffffffffffff821117156102fc576102fb6102a7565b5b80604052505050565b5f61030e61027e565b905061031a82826102d4565b919050565b5f67ffffffffffffffff821115610339576103386102a7565b5b61034282610297565b9050602081019050919050565b828183375f83830152505050565b5f61036f61036a8461031f565b610305565b90508281526020810184848401111561038b5761038a610293565b5b61039684828561034f565b509392505050565b5f82601f8301126103b2576103b161028f565b5b81356103c284826020860161035d565b91505092915050565b5f602082840312156103e0576103df610287565b5b5f82013567ffffffffffffffff8111156103fd576103fc61028b565b5b6104098482850161039e565b91505092915050565b5f63ffffffff82169050919050565b61042a81610412565b82525050565b5f6020820190506104435f830184610421565b92915050565b61045281610412565b811461045c575f80fd5b50565b5f8135905061046d81610449565b92915050565b5f806040838503121561048957610488610287565b5b5f6104968582860161045f565b925050602083013567ffffffffffffffff8111156104b7576104b661028b565b5b6104c38582860161039e565b9150509250929050565b5f819050919050565b6104df816104cd565b81146104e9575f80fd5b50565b5f813590506104fa816104d6565b92915050565b5f6020828403121561051557610514610287565b5b5f610522848285016104ec565b91505092915050565b5f81519050919050565b5f82825260208201905092915050565b8281835e5f83830152505050565b5f61055d8261052b565b6105678185610535565b9350610577818560208601610545565b61058081610297565b840191505092915050565b5f6040820190508181035f8301526105a38185610553565b90506105b26020830184610421565b9392505050565b5f81905092915050565b5f6105cd8261052b565b6105d781856105b9565b93506105e7818560208601610545565b80840191505092915050565b5f6105fe82846105c3565b915081905092915050565b7f4e487b71000000000000000000000000000000000000000000000000000000005f52602260045260245ffd5b5f600282049050600182168061064d57607f821691505b6020821081036106605761065f610609565b5b50919050565b5f819050815f5260205f209050919050565b5f6020601f8301049050919050565b5f82821b905092915050565b5f600883026106c27fffffffffffffffffffffffffffffffffffffffffffffffffffffffffffffffff82610687565b6106cc8683610687565b95508019841693508086168417925050509392505050565b5f819050919050565b5f6107076107026106fd846104cd565b6106e4565b6104cd565b9050919050565b5f819050919050565b610720836106ed565b61073461072c8261070e565b848454610693565b825550505050565b5f90565b61074861073c565b610753818484610717565b505050565b5b818110156107765761076b5f82610740565b600181019050610759565b5050565b601f8211156107bb5761078c81610666565b61079584610678565b810160208510156107a4578190505b6107b86107b085610678565b830182610758565b50505b505050565b5f82821c905092915050565b5f6107db5f19846008026107c0565b1980831691505092915050565b5f6107f383836107cc565b9150826002028217905092915050565b61080c8261052b565b67ffffffffffffffff811115610825576108246102a7565b5b61082f8254610636565b61083a82828561077a565b5f60209050601f83116001811461086b575f8415610859578287015190505b61086385826107e8565b8655506108ca565b601f19841661087986610666565b5f5b828110156108a05784890151825560018201915060208501945060208101905061087b565b868310156108bd57848901516108b9601f8916826107cc565b8355505b6001600288020188555050505b50505050505056fea2646970667358221220334a78899d962d3e4280fa3879d1244488362e88e0873deb072b7d3520e17e1564736f6c634300081a0033",
					"opcodes": "PUSH1 0x80 PUSH1 0x40 MSTORE CALLVALUE DUP1 ISZERO PUSH1 0xE JUMPI PUSH0 DUP1 REVERT JUMPDEST POP PUSH2 0x908 DUP1 PUSH2 0x1C PUSH0 CODECOPY PUSH0 RETURN INVALID PUSH1 0x80 PUSH1 0x40 MSTORE CALLVALUE DUP1 ISZERO PUSH2 0xF JUMPI PUSH0 DUP1 REVERT JUMPDEST POP PUSH1 0x4 CALLDATASIZE LT PUSH2 0x3F JUMPI PUSH0 CALLDATALOAD PUSH1 0xE0 SHR DUP1 PUSH4 0x4CDD154F EQ PUSH2 0x43 JUMPI DUP1 PUSH4 0x5EB5B344 EQ PUSH2 0x73 JUMPI DUP1 PUSH4 0x9E7A13AD EQ PUSH2 0x8F JUMPI JUMPDEST PUSH0 DUP1 REVERT JUMPDEST PUSH2 0x5D PUSH1 0x4 DUP1 CALLDATASIZE SUB DUP2 ADD SWAP1 PUSH2 0x58 SWAP2 SWAP1 PUSH2 0x3CB JUMP JUMPDEST PUSH2 0xC0 JUMP JUMPDEST PUSH1 0x40 MLOAD PUSH2 0x6A SWAP2 SWAP1 PUSH2 0x430 JUMP JUMPDEST PUSH1 0x40 MLOAD DUP1 SWAP2 SUB SWAP1 RETURN JUMPDEST PUSH2 0x8D PUSH1 0x4 DUP1 CALLDATASIZE SUB DUP2 ADD SWAP1 PUSH2 0x88 SWAP2 SWAP1 PUSH2 0x473 JUMP JUMPDEST PUSH2 0xF8 JUMP JUMPDEST STOP JUMPDEST PUSH2 0xA9 PUSH1 0x4 DUP1 CALLDATASIZE SUB DUP2 ADD SWAP1 PUSH2 0xA4 SWAP2 SWAP1 PUSH2 0x500 JUMP JUMPDEST PUSH2 0x1BB JUMP JUMPDEST PUSH1 0x40 MLOAD PUSH2 0xB7 SWAP3 SWAP2 SWAP1 PUSH2 0x58B JUMP JUMPDEST PUSH1 0x40 MLOAD DUP1 SWAP2 SUB SWAP1 RETURN JUMPDEST PUSH1 0x1 DUP2 DUP1 MLOAD PUSH1 0x20 DUP2 ADD DUP3 ADD DUP1 MLOAD DUP5 DUP3 MSTORE PUSH1 0x20 DUP4 ADD PUSH1 0x20 DUP6 ADD KECCAK256 DUP2 DUP4 MSTORE DUP1 SWAP6 POP POP POP POP POP POP PUSH0 SWAP2 POP SLOAD SWAP1 PUSH2 0x100 EXP SWAP1 DIV PUSH4 0xFFFFFFFF AND DUP2 JUMP JUMPDEST PUSH0 PUSH1 0x40 MLOAD DUP1 PUSH1 0x40 ADD PUSH1 0x40 MSTORE DUP1 DUP4 DUP2 MSTORE PUSH1 0x20 ADD DUP5 PUSH4 0xFFFFFFFF AND DUP2 MSTORE POP SWAP1 POP DUP3 PUSH1 0x1 DUP4 PUSH1 0x40 MLOAD PUSH2 0x127 SWAP2 SWAP1 PUSH2 0x5F3 JUMP JUMPDEST SWAP1 DUP2 MSTORE PUSH1 0x20 ADD PUSH1 0x40 MLOAD DUP1 SWAP2 SUB SWAP1 KECCAK256 PUSH0 PUSH2 0x100 EXP DUP2 SLOAD DUP2 PUSH4 0xFFFFFFFF MUL NOT AND SWAP1 DUP4 PUSH4 0xFFFFFFFF AND MUL OR SWAP1 SSTORE POP PUSH0 DUP2 SWAP1 DUP1 PUSH1 0x1 DUP2 SLOAD ADD DUP1 DUP3 SSTORE DUP1 SWAP2 POP POP PUSH1 0x1 SWAP1 SUB SWAP1 PUSH0 MSTORE PUSH1 0x20 PUSH0 KECCAK256 SWAP1 PUSH1 0x2 MUL ADD PUSH0 SWAP1 SWAP2 SWAP1 SWAP2 SWAP1 SWAP2 POP PUSH0 DUP3 ADD MLOAD DUP2 PUSH0 ADD SWAP1 DUP2 PUSH2 0x18D SWAP2 SWAP1 PUSH2 0x803 JUMP JUMPDEST POP PUSH1 0x20 DUP3 ADD MLOAD DUP2 PUSH1 0x1 ADD PUSH0 PUSH2 0x100 EXP DUP2 SLOAD DUP2 PUSH4 0xFFFFFFFF MUL NOT AND SWAP1 DUP4 PUSH4 0xFFFFFFFF AND MUL OR SWAP1 SSTORE POP POP POP POP POP POP JUMP JUMPDEST PUSH0 DUP2 DUP2 SLOAD DUP2 LT PUSH2 0x1C9 JUMPI PUSH0 DUP1 REVERT JUMPDEST SWAP1 PUSH0 MSTORE PUSH1 0x20 PUSH0 KECCAK256 SWAP1 PUSH1 0x2 MUL ADD PUSH0 SWAP2 POP SWAP1 POP DUP1 PUSH0 ADD DUP1 SLOAD PUSH2 0x1E8 SWAP1 PUSH2 0x636 JUMP JUMPDEST DUP1 PUSH1 0x1F ADD PUSH1 0x20 DUP1 SWAP2 DIV MUL PUSH1 0x20 ADD PUSH1 0x40 MLOAD SWAP1 DUP2 ADD PUSH1 0x40 MSTORE DUP1 SWAP3 SWAP2 SWAP1 DUP2 DUP2 MSTORE PUSH1 0x20 ADD DUP3 DUP1 SLOAD PUSH2 0x214 SWAP1 PUSH2 0x636 JUMP JUMPDEST DUP1 ISZERO PUSH2 0x25F JUMPI DUP1 PUSH1 0x1F LT PUSH2 0x236 JUMPI PUSH2 0x100 DUP1 DUP4 SLOAD DIV MUL DUP4 MSTORE SWAP2 PUSH1 0x20 ADD SWAP2 PUSH2 0x25F JUMP JUMPDEST DUP3 ADD SWAP2 SWAP1 PUSH0 MSTORE PUSH1 0x20 PUSH0 KECCAK256 SWAP1 JUMPDEST DUP2 SLOAD DUP2 MSTORE SWAP1 PUSH1 0x1 ADD SWAP1 PUSH1 0x20 ADD DUP1 DUP4 GT PUSH2 0x242 JUMPI DUP3 SWAP1 SUB PUSH1 0x1F AND DUP3 ADD SWAP2 JUMPDEST POP POP POP POP POP SWAP1 DUP1 PUSH1 0x1 ADD PUSH0 SWAP1 SLOAD SWAP1 PUSH2 0x100 EXP SWAP1 DIV PUSH4 0xFFFFFFFF AND SWAP1 POP DUP3 JUMP JUMPDEST PUSH0 PUSH1 0x40 MLOAD SWAP1 POP SWAP1 JUMP JUMPDEST PUSH0 DUP1 REVERT JUMPDEST PUSH0 DUP1 REVERT JUMPDEST PUSH0 DUP1 REVERT JUMPDEST PUSH0 DUP1 REVERT JUMPDEST PUSH0 PUSH1 0x1F NOT PUSH1 0x1F DUP4 ADD AND SWAP1 POP SWAP2 SWAP1 POP JUMP JUMPDEST PUSH32 0x4E487B7100000000000000000000000000000000000000000000000000000000 PUSH0 MSTORE PUSH1 0x41 PUSH1 0x4 MSTORE PUSH1 0x24 PUSH0 REVERT JUMPDEST PUSH2 0x2DD DUP3 PUSH2 0x297 JUMP JUMPDEST DUP2 ADD DUP2 DUP2 LT PUSH8 0xFFFFFFFFFFFFFFFF DUP3 GT OR ISZERO PUSH2 0x2FC JUMPI PUSH2 0x2FB PUSH2 0x2A7 JUMP JUMPDEST JUMPDEST DUP1 PUSH1 0x40 MSTORE POP POP POP JUMP JUMPDEST PUSH0 PUSH2 0x30E PUSH2 0x27E JUMP JUMPDEST SWAP1 POP PUSH2 0x31A DUP3 DUP3 PUSH2 0x2D4 JUMP JUMPDEST SWAP2 SWAP1 POP JUMP JUMPDEST PUSH0 PUSH8 0xFFFFFFFFFFFFFFFF DUP3 GT ISZERO PUSH2 0x339 JUMPI PUSH2 0x338 PUSH2 0x2A7 JUMP JUMPDEST JUMPDEST PUSH2 0x342 DUP3 PUSH2 0x297 JUMP JUMPDEST SWAP1 POP PUSH1 0x20 DUP2 ADD SWAP1 POP SWAP2 SWAP1 POP JUMP JUMPDEST DUP3 DUP2 DUP4 CALLDATACOPY PUSH0 DUP4 DUP4 ADD MSTORE POP POP POP JUMP JUMPDEST PUSH0 PUSH2 0x36F PUSH2 0x36A DUP5 PUSH2 0x31F JUMP JUMPDEST PUSH2 0x305 JUMP JUMPDEST SWAP1 POP DUP3 DUP2 MSTORE PUSH1 0x20 DUP2 ADD DUP5 DUP5 DUP5 ADD GT ISZERO PUSH2 0x38B JUMPI PUSH2 0x38A PUSH2 0x293 JUMP JUMPDEST JUMPDEST PUSH2 0x396 DUP5 DUP3 DUP6 PUSH2 0x34F JUMP JUMPDEST POP SWAP4 SWAP3 POP POP POP JUMP JUMPDEST PUSH0 DUP3 PUSH1 0x1F DUP4 ADD SLT PUSH2 0x3B2 JUMPI PUSH2 0x3B1 PUSH2 0x28F JUMP JUMPDEST JUMPDEST DUP2 CALLDATALOAD PUSH2 0x3C2 DUP5 DUP3 PUSH1 0x20 DUP7 ADD PUSH2 0x35D JUMP JUMPDEST SWAP2 POP POP SWAP3 SWAP2 POP POP JUMP JUMPDEST PUSH0 PUSH1 0x20 DUP3 DUP5 SUB SLT ISZERO PUSH2 0x3E0 JUMPI PUSH2 0x3DF PUSH2 0x287 JUMP JUMPDEST JUMPDEST PUSH0 DUP3 ADD CALLDATALOAD PUSH8 0xFFFFFFFFFFFFFFFF DUP2 GT ISZERO PUSH2 0x3FD JUMPI PUSH2 0x3FC PUSH2 0x28B JUMP JUMPDEST JUMPDEST PUSH2 0x409 DUP5 DUP3 DUP6 ADD PUSH2 0x39E JUMP JUMPDEST SWAP2 POP POP SWAP3 SWAP2 POP POP JUMP JUMPDEST PUSH0 PUSH4 0xFFFFFFFF DUP3 AND SWAP1 POP SWAP2 SWAP1 POP JUMP JUMPDEST PUSH2 0x42A DUP2 PUSH2 0x412 JUMP JUMPDEST DUP3 MSTORE POP POP JUMP JUMPDEST PUSH0 PUSH1 0x20 DUP3 ADD SWAP1 POP PUSH2 0x443 PUSH0 DUP4 ADD DUP5 PUSH2 0x421 JUMP JUMPDEST SWAP3 SWAP2 POP POP JUMP JUMPDEST PUSH2 0x452 DUP2 PUSH2 0x412 JUMP JUMPDEST DUP2 EQ PUSH2 0x45C JUMPI PUSH0 DUP1 REVERT JUMPDEST POP JUMP JUMPDEST PUSH0 DUP2 CALLDATALOAD SWAP1 POP PUSH2 0x46D DUP2 PUSH2 0x449 JUMP JUMPDEST SWAP3 SWAP2 POP POP JUMP JUMPDEST PUSH0 DUP1 PUSH1 0x40 DUP4 DUP6 SUB SLT ISZERO PUSH2 0x489 JUMPI PUSH2 0x488 PUSH2 0x287 JUMP JUMPDEST JUMPDEST PUSH0 PUSH2 0x496 DUP6 DUP3 DUP7 ADD PUSH2 0x45F JUMP JUMPDEST SWAP3 POP POP PUSH1 0x20 DUP4 ADD CALLDATALOAD PUSH8 0xFFFFFFFFFFFFFFFF DUP2 GT ISZERO PUSH2 0x4B7 JUMPI PUSH2 0x4B6 PUSH2 0x28B JUMP JUMPDEST JUMPDEST PUSH2 0x4C3 DUP6 DUP3 DUP7 ADD PUSH2 0x39E JUMP JUMPDEST SWAP2 POP POP SWAP3 POP SWAP3 SWAP1 POP JUMP JUMPDEST PUSH0 DUP2 SWAP1 POP SWAP2 SWAP1 POP JUMP JUMPDEST PUSH2 0x4DF DUP2 PUSH2 0x4CD JUMP JUMPDEST DUP2 EQ PUSH2 0x4E9 JUMPI PUSH0 DUP1 REVERT JUMPDEST POP JUMP JUMPDEST PUSH0 DUP2 CALLDATALOAD SWAP1 POP PUSH2 0x4FA DUP2 PUSH2 0x4D6 JUMP JUMPDEST SWAP3 SWAP2 POP POP JUMP JUMPDEST PUSH0 PUSH1 0x20 DUP3 DUP5 SUB SLT ISZERO PUSH2 0x515 JUMPI PUSH2 0x514 PUSH2 0x287 JUMP JUMPDEST JUMPDEST PUSH0 PUSH2 0x522 DUP5 DUP3 DUP6 ADD PUSH2 0x4EC JUMP JUMPDEST SWAP2 POP POP SWAP3 SWAP2 POP POP JUMP JUMPDEST PUSH0 DUP2 MLOAD SWAP1 POP SWAP2 SWAP1 POP JUMP JUMPDEST PUSH0 DUP3 DUP3 MSTORE PUSH1 0x20 DUP3 ADD SWAP1 POP SWAP3 SWAP2 POP POP JUMP JUMPDEST DUP3 DUP2 DUP4 MCOPY PUSH0 DUP4 DUP4 ADD MSTORE POP POP POP JUMP JUMPDEST PUSH0 PUSH2 0x55D DUP3 PUSH2 0x52B JUMP JUMPDEST PUSH2 0x567 DUP2 DUP6 PUSH2 0x535 JUMP JUMPDEST SWAP4 POP PUSH2 0x577 DUP2 DUP6 PUSH1 0x20 DUP7 ADD PUSH2 0x545 JUMP JUMPDEST PUSH2 0x580 DUP2 PUSH2 0x297 JUMP JUMPDEST DUP5 ADD SWAP2 POP POP SWAP3 SWAP2 POP POP JUMP JUMPDEST PUSH0 PUSH1 0x40 DUP3 ADD SWAP1 POP DUP2 DUP2 SUB PUSH0 DUP4 ADD MSTORE PUSH2 0x5A3 DUP2 DUP6 PUSH2 0x553 JUMP JUMPDEST SWAP1 POP PUSH2 0x5B2 PUSH1 0x20 DUP4 ADD DUP5 PUSH2 0x421 JUMP JUMPDEST SWAP4 SWAP3 POP POP POP JUMP JUMPDEST PUSH0 DUP2 SWAP1 POP SWAP3 SWAP2 POP POP JUMP JUMPDEST PUSH0 PUSH2 0x5CD DUP3 PUSH2 0x52B JUMP JUMPDEST PUSH2 0x5D7 DUP2 DUP6 PUSH2 0x5B9 JUMP JUMPDEST SWAP4 POP PUSH2 0x5E7 DUP2 DUP6 PUSH1 0x20 DUP7 ADD PUSH2 0x545 JUMP JUMPDEST DUP1 DUP5 ADD SWAP2 POP POP SWAP3 SWAP2 POP POP JUMP JUMPDEST PUSH0 PUSH2 0x5FE DUP3 DUP5 PUSH2 0x5C3 JUMP JUMPDEST SWAP2 POP DUP2 SWAP1 POP SWAP3 SWAP2 POP POP JUMP JUMPDEST PUSH32 0x4E487B7100000000000000000000000000000000000000000000000000000000 PUSH0 MSTORE PUSH1 0x22 PUSH1 0x4 MSTORE PUSH1 0x24 PUSH0 REVERT JUMPDEST PUSH0 PUSH1 0x2 DUP3 DIV SWAP1 POP PUSH1 0x1 DUP3 AND DUP1 PUSH2 0x64D JUMPI PUSH1 0x7F DUP3 AND SWAP2 POP JUMPDEST PUSH1 0x20 DUP3 LT DUP2 SUB PUSH2 0x660 JUMPI PUSH2 0x65F PUSH2 0x609 JUMP JUMPDEST JUMPDEST POP SWAP2 SWAP1 POP JUMP JUMPDEST PUSH0 DUP2 SWAP1 POP DUP2 PUSH0 MSTORE PUSH1 0x20 PUSH0 KECCAK256 SWAP1 POP SWAP2 SWAP1 POP JUMP JUMPDEST PUSH0 PUSH1 0x20 PUSH1 0x1F DUP4 ADD DIV SWAP1 POP SWAP2 SWAP1 POP JUMP JUMPDEST PUSH0 DUP3 DUP3 SHL SWAP1 POP SWAP3 SWAP2 POP POP JUMP JUMPDEST PUSH0 PUSH1 0x8 DUP4 MUL PUSH2 0x6C2 PUSH32 0xFFFFFFFFFFFFFFFFFFFFFFFFFFFFFFFFFFFFFFFFFFFFFFFFFFFFFFFFFFFFFFFF DUP3 PUSH2 0x687 JUMP JUMPDEST PUSH2 0x6CC DUP7 DUP4 PUSH2 0x687 JUMP JUMPDEST SWAP6 POP DUP1 NOT DUP5 AND SWAP4 POP DUP1 DUP7 AND DUP5 OR SWAP3 POP POP POP SWAP4 SWAP3 POP POP POP JUMP JUMPDEST PUSH0 DUP2 SWAP1 POP SWAP2 SWAP1 POP JUMP JUMPDEST PUSH0 PUSH2 0x707 PUSH2 0x702 PUSH2 0x6FD DUP5 PUSH2 0x4CD JUMP JUMPDEST PUSH2 0x6E4 JUMP JUMPDEST PUSH2 0x4CD JUMP JUMPDEST SWAP1 POP SWAP2 SWAP1 POP JUMP JUMPDEST PUSH0 DUP2 SWAP1 POP SWAP2 SWAP1 POP JUMP JUMPDEST PUSH2 0x720 DUP4 PUSH2 0x6ED JUMP JUMPDEST PUSH2 0x734 PUSH2 0x72C DUP3 PUSH2 0x70E JUMP JUMPDEST DUP5 DUP5 SLOAD PUSH2 0x693 JUMP JUMPDEST DUP3 SSTORE POP POP POP POP JUMP JUMPDEST PUSH0 SWAP1 JUMP JUMPDEST PUSH2 0x748 PUSH2 0x73C JUMP JUMPDEST PUSH2 0x753 DUP2 DUP5 DUP5 PUSH2 0x717 JUMP JUMPDEST POP POP POP JUMP JUMPDEST JUMPDEST DUP2 DUP2 LT ISZERO PUSH2 0x776 JUMPI PUSH2 0x76B PUSH0 DUP3 PUSH2 0x740 JUMP JUMPDEST PUSH1 0x1 DUP2 ADD SWAP1 POP PUSH2 0x759 JUMP JUMPDEST POP POP JUMP JUMPDEST PUSH1 0x1F DUP3 GT ISZERO PUSH2 0x7BB JUMPI PUSH2 0x78C DUP2 PUSH2 0x666 JUMP JUMPDEST PUSH2 0x795 DUP5 PUSH2 0x678 JUMP JUMPDEST DUP2 ADD PUSH1 0x20 DUP6 LT ISZERO PUSH2 0x7A4 JUMPI DUP2 SWAP1 POP JUMPDEST PUSH2 0x7B8 PUSH2 0x7B0 DUP6 PUSH2 0x678 JUMP JUMPDEST DUP4 ADD DUP3 PUSH2 0x758 JUMP JUMPDEST POP POP JUMPDEST POP POP POP JUMP JUMPDEST PUSH0 DUP3 DUP3 SHR SWAP1 POP SWAP3 SWAP2 POP POP JUMP JUMPDEST PUSH0 PUSH2 0x7DB PUSH0 NOT DUP5 PUSH1 0x8 MUL PUSH2 0x7C0 JUMP JUMPDEST NOT DUP1 DUP4 AND SWAP2 POP POP SWAP3 SWAP2 POP POP JUMP JUMPDEST PUSH0 PUSH2 0x7F3 DUP4 DUP4 PUSH2 0x7CC JUMP JUMPDEST SWAP2 POP DUP3 PUSH1 0x2 MUL DUP3 OR SWAP1 POP SWAP3 SWAP2 POP POP JUMP JUMPDEST PUSH2 0x80C DUP3 PUSH2 0x52B JUMP JUMPDEST PUSH8 0xFFFFFFFFFFFFFFFF DUP2 GT ISZERO PUSH2 0x825 JUMPI PUSH2 0x824 PUSH2 0x2A7 JUMP JUMPDEST JUMPDEST PUSH2 0x82F DUP3 SLOAD PUSH2 0x636 JUMP JUMPDEST PUSH2 0x83A DUP3 DUP3 DUP6 PUSH2 0x77A JUMP JUMPDEST PUSH0 PUSH1 0x20 SWAP1 POP PUSH1 0x1F DUP4 GT PUSH1 0x1 DUP2 EQ PUSH2 0x86B JUMPI PUSH0 DUP5 ISZERO PUSH2 0x859 JUMPI DUP3 DUP8 ADD MLOAD SWAP1 POP JUMPDEST PUSH2 0x863 DUP6 DUP3 PUSH2 0x7E8 JUMP JUMPDEST DUP7 SSTORE POP PUSH2 0x8CA JUMP JUMPDEST PUSH1 0x1F NOT DUP5 AND PUSH2 0x879 DUP7 PUSH2 0x666 JUMP JUMPDEST PUSH0 JUMPDEST DUP3 DUP2 LT ISZERO PUSH2 0x8A0 JUMPI DUP5 DUP10 ADD MLOAD DUP3 SSTORE PUSH1 0x1 DUP3 ADD SWAP2 POP PUSH1 0x20 DUP6 ADD SWAP5 POP PUSH1 0x20 DUP2 ADD SWAP1 POP PUSH2 0x87B JUMP JUMPDEST DUP7 DUP4 LT ISZERO PUSH2 0x8BD JUMPI DUP5 DUP10 ADD MLOAD PUSH2 0x8B9 PUSH1 0x1F DUP10 AND DUP3 PUSH2 0x7CC JUMP JUMPDEST DUP4 SSTORE POP JUMPDEST PUSH1 0x1 PUSH1 0x2 DUP9 MUL ADD DUP9 SSTORE POP POP POP JUMPDEST POP POP POP POP POP POP JUMP INVALID LOG2 PUSH5 0x6970667358 0x22 SLT KECCAK256 CALLER BLOBBASEFEE PUSH25 0x899D962D3E4280FA3879D1244488362E88E0873DEB072B7D35 KECCAK256 0xE1 PUSH31 0x1564736F6C634300081A003300000000000000000000000000000000000000 "
				},
				"gasEstimates": {
					"creation": {
						"codeDepositCost": "462400",
						"executionCost": "497",
						"totalCost": "462897"
					},
					"external": {
						"ntn(string)": "infinite",
						"people(uint256)": "infinite",
						"store(uint32,string)": "infinite"
					}
				},
				"methodIdentifiers": {
					"ntn(string)": "4cdd154f",
					"people(uint256)": "9e7a13ad",
					"store(uint32,string)": "5eb5b344"
				}
			},
			"storageLayout": {
				"storage": [
					{
						"astId": 10,
						"contract": "contracts/SimpleStorage.sol:SimpleStorage",
						"label": "people",
						"offset": 0,
						"slot": "0",
						"type": "t_array(t_struct(Person)6_storage)dyn_storage"
					},
					{
						"astId": 14,
						"contract": "contracts/SimpleStorage.sol:SimpleStorage",
						"label": "ntn",
						"offset": 0,
						"slot": "1",
						"type": "t_mapping(t_string_memory_ptr,t_uint32)"
					}
				],
				"types": {
					"t_array(t_struct(Person)6_storage)dyn_storage": {
						"base": "t_struct(Person)6_storage",
						"encoding": "dynamic_array",
						"label": "struct Person[]",
						"numberOfBytes": "32"
					},
					"t_mapping(t_string_memory_ptr,t_uint32)": {
						"encoding": "mapping",
						"key": "t_string_memory_ptr",
						"label": "mapping(string => uint32)",
						"numberOfBytes": "32",
						"value": "t_uint32"
					},
					"t_string_memory_ptr": {
						"encoding": "bytes",
						"label": "string",
						"numberOfBytes": "32"
					},
					"t_string_storage": {
						"encoding": "bytes",
						"label": "string",
						"numberOfBytes": "32"
					},
					"t_struct(Person)6_storage": {
						"encoding": "inplace",
						"label": "struct Person",
						"members": [
							{
								"astId": 3,
								"contract": "contracts/SimpleStorage.sol:SimpleStorage",
								"label": "name",
								"offset": 0,
								"slot": "0",
								"type": "t_string_storage"
							},
							{
								"astId": 5,
								"contract": "contracts/SimpleStorage.sol:SimpleStorage",
								"label": "age",
								"offset": 0,
								"slot": "1",
								"type": "t_uint32"
							}
						],
						"numberOfBytes": "64"
					},
					"t_uint32": {
						"encoding": "inplace",
						"label": "uint32",
						"numberOfBytes": "4"
					}
				}
			},
			"userdoc": {
				"kind": "user",
				"methods": {},
				"version": 1
			}
		}
	}
}