{
	"contracts/SimpleStorage.sol": {
		"SimpleStorage": {
			"abi": [
				{
					"inputs": [],
					"name": "favoriteNumber",
					"outputs": [
						{
							"internalType": "uint32",
							"name": "",
							"type": "uint32"
						}
					],
					"stateMutability": "view",
					"type": "function"
				},
				{
					"inputs": [],
					"name": "get",
					"outputs": [
						{
							"internalType": "uint32",
							"name": "",
							"type": "uint32"
						}
					],
					"stateMutability": "view",
					"type": "function"
				},
				{
					"inputs": [
						{
							"internalType": "uint32",
							"name": "_favoriteNumber",
							"type": "uint32"
						}
					],
					"name": "store",
					"outputs": [],
					"stateMutability": "nonpayable",
					"type": "function"
				}
			],
			"devdoc": {
				"kind": "dev",
				"methods": {},
				"version": 1
			},
			"evm": {
				"assembly": "    /* \"contracts/SimpleStorage.sol\":219:550  contract SimpleStorage {... */\n  mstore(0x40, 0x80)\n    /* \"contracts/SimpleStorage.sol\":351:354  123 */\n  0x7b\n    /* \"contracts/SimpleStorage.sol\":320:354  uint32 public favoriteNumber = 123 */\n  0x00\n  dup1\n  0x0100\n  exp\n  dup2\n  sload\n  dup2\n  0xffffffff\n  mul\n  not\n  and\n  swap1\n  dup4\n  0xffffffff\n  and\n  mul\n  or\n  swap1\n  sstore\n  pop\n    /* \"contracts/SimpleStorage.sol\":219:550  contract SimpleStorage {... */\n  callvalue\n  dup1\n  iszero\n  tag_1\n  jumpi\n  0x00\n  dup1\n  revert\ntag_1:\n  pop\n  dataSize(sub_0)\n  dup1\n  dataOffset(sub_0)\n  0x00\n  codecopy\n  0x00\n  return\nstop\n\nsub_0: assembly {\n        /* \"contracts/SimpleStorage.sol\":219:550  contract SimpleStorage {... */\n      mstore(0x40, 0x80)\n      callvalue\n      dup1\n      iszero\n      tag_1\n      jumpi\n      0x00\n      dup1\n      revert\n    tag_1:\n      pop\n      jumpi(tag_2, lt(calldatasize, 0x04))\n      shr(0xe0, calldataload(0x00))\n      dup1\n      0x471f7cdf\n      eq\n      tag_3\n      jumpi\n      dup1\n      0x6d4ce63c\n      eq\n      tag_4\n      jumpi\n      dup1\n      0xb9e95382\n      eq\n      tag_5\n      jumpi\n    tag_2:\n      0x00\n      dup1\n      revert\n        /* \"contracts/SimpleStorage.sol\":320:354  uint32 public favoriteNumber = 123 */\n    tag_3:\n      tag_6\n      tag_7\n      jump\t// in\n    tag_6:\n      mload(0x40)\n      tag_8\n      swap2\n      swap1\n      tag_9\n      jump\t// in\n    tag_8:\n      mload(0x40)\n      dup1\n      swap2\n      sub\n      swap1\n      return\n        /* \"contracts/SimpleStorage.sol\":464:547  function get() public view returns(uint32) {... */\n    tag_4:\n      tag_10\n      tag_11\n      jump\t// in\n    tag_10:\n      mload(0x40)\n      tag_12\n      swap2\n      swap1\n      tag_9\n      jump\t// in\n    tag_12:\n      mload(0x40)\n      dup1\n      swap2\n      sub\n      swap1\n      return\n        /* \"contracts/SimpleStorage.sol\":361:458  function store(uint32 _favoriteNumber) public {... */\n    tag_5:\n      tag_13\n      0x04\n      dup1\n      calldatasize\n      sub\n      dup2\n      add\n      swap1\n      tag_14\n      swap2\n      swap1\n      tag_15\n      jump\t// in\n    tag_14:\n      tag_16\n      jump\t// in\n    tag_13:\n      stop\n        /* \"contracts/SimpleStorage.sol\":320:354  uint32 public favoriteNumber = 123 */\n    tag_7:\n      0x00\n      dup1\n      sload\n      swap1\n      0x0100\n      exp\n      swap1\n      div\n      0xffffffff\n      and\n      dup2\n      jump\t// out\n        /* \"contracts/SimpleStorage.sol\":464:547  function get() public view returns(uint32) {... */\n    tag_11:\n        /* \"contracts/SimpleStorage.sol\":499:505  uint32 */\n      0x00\n        /* \"contracts/SimpleStorage.sol\":525:539  favoriteNumber */\n      dup1\n      0x00\n      swap1\n      sload\n      swap1\n      0x0100\n      exp\n      swap1\n      div\n      0xffffffff\n      and\n        /* \"contracts/SimpleStorage.sol\":518:539  return favoriteNumber */\n      swap1\n      pop\n        /* \"contracts/SimpleStorage.sol\":464:547  function get() public view returns(uint32) {... */\n      swap1\n      jump\t// out\n        /* \"contracts/SimpleStorage.sol\":361:458  function store(uint32 _favoriteNumber) public {... */\n    tag_16:\n        /* \"contracts/SimpleStorage.sol\":435:450  _favoriteNumber */\n      dup1\n        /* \"contracts/SimpleStorage.sol\":418:432  favoriteNumber */\n      0x00\n      dup1\n        /* \"contracts/SimpleStorage.sol\":418:450  favoriteNumber = _favoriteNumber */\n      0x0100\n      exp\n      dup2\n      sload\n      dup2\n      0xffffffff\n      mul\n      not\n      and\n      swap1\n      dup4\n      0xffffffff\n      and\n      mul\n      or\n      swap1\n      sstore\n      pop\n        /* \"contracts/SimpleStorage.sol\":361:458  function store(uint32 _favoriteNumber) public {... */\n      pop\n      jump\t// out\n        /* \"#utility.yul\":7:100   */\n    tag_19:\n        /* \"#utility.yul\":43:50   */\n      0x00\n        /* \"#utility.yul\":83:93   */\n      0xffffffff\n        /* \"#utility.yul\":76:81   */\n      dup3\n        /* \"#utility.yul\":72:94   */\n      and\n        /* \"#utility.yul\":61:94   */\n      swap1\n      pop\n        /* \"#utility.yul\":7:100   */\n      swap2\n      swap1\n      pop\n      jump\t// out\n        /* \"#utility.yul\":106:221   */\n    tag_20:\n        /* \"#utility.yul\":191:214   */\n      tag_29\n        /* \"#utility.yul\":208:213   */\n      dup2\n        /* \"#utility.yul\":191:214   */\n      tag_19\n      jump\t// in\n    tag_29:\n        /* \"#utility.yul\":186:189   */\n      dup3\n        /* \"#utility.yul\":179:215   */\n      mstore\n        /* \"#utility.yul\":106:221   */\n      pop\n      pop\n      jump\t// out\n        /* \"#utility.yul\":227:445   */\n    tag_9:\n        /* \"#utility.yul\":318:322   */\n      0x00\n        /* \"#utility.yul\":356:358   */\n      0x20\n        /* \"#utility.yul\":345:354   */\n      dup3\n        /* \"#utility.yul\":341:359   */\n      add\n        /* \"#utility.yul\":333:359   */\n      swap1\n      pop\n        /* \"#utility.yul\":369:438   */\n      tag_31\n        /* \"#utility.yul\":435:436   */\n      0x00\n        /* \"#utility.yul\":424:433   */\n      dup4\n        /* \"#utility.yul\":420:437   */\n      add\n        /* \"#utility.yul\":411:417   */\n      dup5\n        /* \"#utility.yul\":369:438   */\n      tag_20\n      jump\t// in\n    tag_31:\n        /* \"#utility.yul\":227:445   */\n      swap3\n      swap2\n      pop\n      pop\n      jump\t// out\n        /* \"#utility.yul\":532:649   */\n    tag_22:\n        /* \"#utility.yul\":641:642   */\n      0x00\n        /* \"#utility.yul\":638:639   */\n      dup1\n        /* \"#utility.yul\":631:643   */\n      revert\n        /* \"#utility.yul\":778:898   */\n    tag_24:\n        /* \"#utility.yul\":850:873   */\n      tag_36\n        /* \"#utility.yul\":867:872   */\n      dup2\n        /* \"#utility.yul\":850:873   */\n      tag_19\n      jump\t// in\n    tag_36:\n        /* \"#utility.yul\":843:848   */\n      dup2\n        /* \"#utility.yul\":840:874   */\n      eq\n        /* \"#utility.yul\":830:892   */\n      tag_37\n      jumpi\n        /* \"#utility.yul\":888:889   */\n      0x00\n        /* \"#utility.yul\":885:886   */\n      dup1\n        /* \"#utility.yul\":878:890   */\n      revert\n        /* \"#utility.yul\":830:892   */\n    tag_37:\n        /* \"#utility.yul\":778:898   */\n      pop\n      jump\t// out\n        /* \"#utility.yul\":904:1041   */\n    tag_25:\n        /* \"#utility.yul\":949:954   */\n      0x00\n        /* \"#utility.yul\":987:993   */\n      dup2\n        /* \"#utility.yul\":974:994   */\n      calldataload\n        /* \"#utility.yul\":965:994   */\n      swap1\n      pop\n        /* \"#utility.yul\":1003:1035   */\n      tag_39\n        /* \"#utility.yul\":1029:1034   */\n      dup2\n        /* \"#utility.yul\":1003:1035   */\n      tag_24\n      jump\t// in\n    tag_39:\n        /* \"#utility.yul\":904:1041   */\n      swap3\n      swap2\n      pop\n      pop\n      jump\t// out\n        /* \"#utility.yul\":1047:1374   */\n    tag_15:\n        /* \"#utility.yul\":1105:1111   */\n      0x00\n        /* \"#utility.yul\":1154:1156   */\n      0x20\n        /* \"#utility.yul\":1142:1151   */\n      dup3\n        /* \"#utility.yul\":1133:1140   */\n      dup5\n        /* \"#utility.yul\":1129:1152   */\n      sub\n        /* \"#utility.yul\":1125:1157   */\n      slt\n        /* \"#utility.yul\":1122:1241   */\n      iszero\n      tag_41\n      jumpi\n        /* \"#utility.yul\":1160:1239   */\n      tag_42\n      tag_22\n      jump\t// in\n    tag_42:\n        /* \"#utility.yul\":1122:1241   */\n    tag_41:\n        /* \"#utility.yul\":1280:1281   */\n      0x00\n        /* \"#utility.yul\":1305:1357   */\n      tag_43\n        /* \"#utility.yul\":1349:1356   */\n      dup5\n        /* \"#utility.yul\":1340:1346   */\n      dup3\n        /* \"#utility.yul\":1329:1338   */\n      dup6\n        /* \"#utility.yul\":1325:1347   */\n      add\n        /* \"#utility.yul\":1305:1357   */\n      tag_25\n      jump\t// in\n    tag_43:\n        /* \"#utility.yul\":1295:1357   */\n      swap2\n      pop\n        /* \"#utility.yul\":1251:1367   */\n      pop\n        /* \"#utility.yul\":1047:1374   */\n      swap3\n      swap2\n      pop\n      pop\n      jump\t// out\n\n    auxdata: 0xa264697066735822122014bc7c15a9d0b3c41eb0c0656fb1ecb8b9decf0179eb1fcb81422f2206953e9064736f6c634300081a0033\n}\n",
				"bytecode": {
					"linkReferences": {},
					"object": "6080604052607b5f806101000a81548163ffffffff021916908363ffffffff160217905550348015602e575f80fd5b506101ad8061003c5f395ff3fe608060405234801561000f575f80fd5b506004361061003f575f3560e01c8063471f7cdf146100435780636d4ce63c14610061578063b9e953821461007f575b5f80fd5b61004b61009b565b6040516100589190610105565b60405180910390f35b6100696100ae565b6040516100769190610105565b60405180910390f35b6100996004803603810190610094919061014c565b6100c5565b005b5f8054906101000a900463ffffffff1681565b5f805f9054906101000a900463ffffffff16905090565b805f806101000a81548163ffffffff021916908363ffffffff16021790555050565b5f63ffffffff82169050919050565b6100ff816100e7565b82525050565b5f6020820190506101185f8301846100f6565b92915050565b5f80fd5b61012b816100e7565b8114610135575f80fd5b50565b5f8135905061014681610122565b92915050565b5f602082840312156101615761016061011e565b5b5f61016e84828501610138565b9150509291505056fea264697066735822122014bc7c15a9d0b3c41eb0c0656fb1ecb8b9decf0179eb1fcb81422f2206953e9064736f6c634300081a0033",
					"opcodes": "PUSH1 0x80 PUSH1 0x40 MSTORE PUSH1 0x7B PUSH0 DUP1 PUSH2 0x100 EXP DUP2 SLOAD DUP2 PUSH4 0xFFFFFFFF MUL NOT AND SWAP1 DUP4 PUSH4 0xFFFFFFFF AND MUL OR SWAP1 SSTORE POP CALLVALUE DUP1 ISZERO PUSH1 0x2E JUMPI PUSH0 DUP1 REVERT JUMPDEST POP PUSH2 0x1AD DUP1 PUSH2 0x3C PUSH0 CODECOPY PUSH0 RETURN INVALID PUSH1 0x80 PUSH1 0x40 MSTORE CALLVALUE DUP1 ISZERO PUSH2 0xF JUMPI PUSH0 DUP1 REVERT JUMPDEST POP PUSH1 0x4 CALLDATASIZE LT PUSH2 0x3F JUMPI PUSH0 CALLDATALOAD PUSH1 0xE0 SHR DUP1 PUSH4 0x471F7CDF EQ PUSH2 0x43 JUMPI DUP1 PUSH4 0x6D4CE63C EQ PUSH2 0x61 JUMPI DUP1 PUSH4 0xB9E95382 EQ PUSH2 0x7F JUMPI JUMPDEST PUSH0 DUP1 REVERT JUMPDEST PUSH2 0x4B PUSH2 0x9B JUMP JUMPDEST PUSH1 0x40 MLOAD PUSH2 0x58 SWAP2 SWAP1 PUSH2 0x105 JUMP JUMPDEST PUSH1 0x40 MLOAD DUP1 SWAP2 SUB SWAP1 RETURN JUMPDEST PUSH2 0x69 PUSH2 0xAE JUMP JUMPDEST PUSH1 0x40 MLOAD PUSH2 0x76 SWAP2 SWAP1 PUSH2 0x105 JUMP JUMPDEST PUSH1 0x40 MLOAD DUP1 SWAP2 SUB SWAP1 RETURN JUMPDEST PUSH2 0x99 PUSH1 0x4 DUP1 CALLDATASIZE SUB DUP2 ADD SWAP1 PUSH2 0x94 SWAP2 SWAP1 PUSH2 0x14C JUMP JUMPDEST PUSH2 0xC5 JUMP JUMPDEST STOP JUMPDEST PUSH0 DUP1 SLOAD SWAP1 PUSH2 0x100 EXP SWAP1 DIV PUSH4 0xFFFFFFFF AND DUP2 JUMP JUMPDEST PUSH0 DUP1 PUSH0 SWAP1 SLOAD SWAP1 PUSH2 0x100 EXP SWAP1 DIV PUSH4 0xFFFFFFFF AND SWAP1 POP SWAP1 JUMP JUMPDEST DUP1 PUSH0 DUP1 PUSH2 0x100 EXP DUP2 SLOAD DUP2 PUSH4 0xFFFFFFFF MUL NOT AND SWAP1 DUP4 PUSH4 0xFFFFFFFF AND MUL OR SWAP1 SSTORE POP POP JUMP JUMPDEST PUSH0 PUSH4 0xFFFFFFFF DUP3 AND SWAP1 POP SWAP2 SWAP1 POP JUMP JUMPDEST PUSH2 0xFF DUP2 PUSH2 0xE7 JUMP JUMPDEST DUP3 MSTORE POP POP JUMP JUMPDEST PUSH0 PUSH1 0x20 DUP3 ADD SWAP1 POP PUSH2 0x118 PUSH0 DUP4 ADD DUP5 PUSH2 0xF6 JUMP JUMPDEST SWAP3 SWAP2 POP POP JUMP JUMPDEST PUSH0 DUP1 REVERT JUMPDEST PUSH2 0x12B DUP2 PUSH2 0xE7 JUMP JUMPDEST DUP2 EQ PUSH2 0x135 JUMPI PUSH0 DUP1 REVERT JUMPDEST POP JUMP JUMPDEST PUSH0 DUP2 CALLDATALOAD SWAP1 POP PUSH2 0x146 DUP2 PUSH2 0x122 JUMP JUMPDEST SWAP3 SWAP2 POP POP JUMP JUMPDEST PUSH0 PUSH1 0x20 DUP3 DUP5 SUB SLT ISZERO PUSH2 0x161 JUMPI PUSH2 0x160 PUSH2 0x11E JUMP JUMPDEST JUMPDEST PUSH0 PUSH2 0x16E DUP5 DUP3 DUP6 ADD PUSH2 0x138 JUMP JUMPDEST SWAP2 POP POP SWAP3 SWAP2 POP POP JUMP INVALID LOG2 PUSH5 0x6970667358 0x22 SLT KECCAK256 EQ 0xBC PUSH29 0x15A9D0B3C41EB0C0656FB1ECB8B9DECF0179EB1FCB81422F2206953E90 PUSH5 0x736F6C6343 STOP ADDMOD BYTE STOP CALLER "
				},
				"gasEstimates": {
					"creation": {
						"codeDepositCost": "85800",
						"executionCost": "24399",
						"totalCost": "110199"
					},
					"external": {
						"favoriteNumber()": "2441",
						"get()": "2473",
						"store(uint32)": "24695"
					}
				},
				"methodIdentifiers": {
					"favoriteNumber()": "471f7cdf",
					"get()": "6d4ce63c",
					"store(uint32)": "b9e95382"
				}
			},
			"storageLayout": {
				"storage": [
					{
						"astId": 4,
						"contract": "contracts/SimpleStorage.sol:SimpleStorage",
						"label": "favoriteNumber",
						"offset": 0,
						"slot": "0",
						"type": "t_uint32"
					}
				],
				"types": {
					"t_uint32": {
						"encoding": "inplace",
						"label": "uint32",
						"numberOfBytes": "4"
					}
				}
			},
			"userdoc": {
				"kind": "user",
				"methods": {},
				"version": 1
			}
		}
	}
}